S01C00004772616669736B446973706C61794472697665722E73726563FF
S113000071C0000079C0000077C0000075C0000016
S113001073C0000071C000006FC000006DC000001C
S11300206BC0000069C0000067C0000065C000002C
S113003063C0000061C000005FC000005DC000003C
S11300405BC0000059C0000057C0000055C000004C
S113005053C0000051C000004FC000004DC000005C
S11300604BC0000049C0000047C0000045C000006C
S113007043C0000041C000003FC000003DC000007C
S11300803BC0000039C0000037C0000035C000008C
S113009033C0000031C000002FC000002DC000009C
S11300A02BC0000029C0000027C0000025C00000AC
S11300B023C0000021C000001FC000001DC00000BC
S11300C01BC0000019C0000017C0000015C00000CC
S11300D013C0000011C000000FC000000DC00000DC
S11300E00BC0000011241FBECFEFD1E2DEBFCDBF95
S11300F000E00CBFF0D03DC183CF92B988B95F98BE
S1130100A198A298A29AA19AA298089592B988B99E
S11301105F9AA198A298A29AA19AA298089588E2B7
S113012090E0EBCF089589E290E0E7CF089581E174
S113013090E0E3CF0895CF93C82F86E390E0DDDF0E
S11301408C2F90E0E3DFCF910895CF93C82F8AE3FB
S113015090E0D3DF8C2F90E0D9DFCF91089583B363
S1130160876083BB579A81B18FEF81B997B187B903
S11301705F9AA29AA19AA09AA0982FEF89E698E193
S1130180215080409040E1F700C00000A09A2FEF7A
S113019088E596E0215080409040E1F700C00000DF
S11301A0C6DFC1DF88E0C7DF85E0CFCF08958CE2EA
S11301B090E0A3CF0895803290F4403280F460340C
S11301C070F490E2699FB0011124642B90E0982FA1
S11301D08827990F990F990F862B972B97CF0895FE
S11301E00F931F93CF93DF93082FD92F162FC72F69
S11301F08AE290E082DF8D2F90E088DF802F9D2FB0
S113020085DF8C2F90E082DF812F9C2F7FDFDF91B1
S1130210CF911F910F9108950F931F93CF93DF9365
S1130220082FD92F162FC72F8BE290E066DF8D2F72
S113023090E06CDF802F9D2F69DF8C2F90E066DFCC
S1130240812F9C2F63DFDF91CF911F910F91089530
S11302504F925F926F927F928F929F92AF92BF92D2
S1130260CF92EF920F933B014A015901BC01640FF5
S1130270751FD2DFB3016A0D7B1DC301B1DF97DFA8
S11302808A9C20018B9C500C9A9C500C1124612C4C
S1130290712C411451046104710489F0812C912C56
S11302A054014C2D6E2D802F86DF8FEF881A980A0B
S11302B0A80AB80A84149504A604B70490F30F910D
S11302C0EF90CF90BF90AF909F908F907F906F9062
S11302D05F904F90089543DF0F2EFFE1CF2EF02D56
S11302E00F2EFFE3EF2EF02D0FE120EF30E040E47E
S11302F051E060E070E080E090E0AADFC12CE12CE6
S113030024E630E044E650E06CE870E080E090E001
S11303109FDF24E630E044E650E060E070E080E0F7
S113032090E096DF24E630E044EB50E060E070E0DB
S11303308CE890E08DDF24E630E044EB50E06CE89C
S113034070E08CE890E084DFEEDE2FEF83ED90E345
S1130350215080409040E1F700C00000E0DE2FEF24
S113036083ED90E3215080409040E1F700C000000D
S1090370EBCFF894FFCF6F
S9030000FC
