:1000000071C000008FC000008DC000008BC00000D8
:1000100089C0000087C0000085C0000083C00000C8
:1000200081C000007FC000007DC000007BC00000D8
:1000300079C0000077C0000075C0000073C00000E8
:1000400071C000006FC000006DC000006BC00000F8
:1000500069C0000067C0000065C0000063C0000008
:1000600061C000005FC000005DC000005BC0000018
:1000700059C0000057C0000055C0000053C0000028
:1000800051C000004FC000004DC000004BC0000038
:1000900049C0000047C0000045C0000043C0000048
:1000A00041C000003FC000003DC000003BC0000058
:1000B00039C0000037C0000035C0000058C3000040
:1000C00031C000002FC000002DC000002BC0000078
:1000D00029C0000027C0000025C0000023C0000088
:1000E00021C0000011241FBECFEFD1E2DEBFCDBF83
:1000F00000E00CBF12E0A0E0B2E0E2EFF3E100E0CC
:100100000BBF02C007900D92A232B107D9F728E0C9
:10011000A2E2B2E001C01D92A733B207E1F7D4D04A
:100120000C94F7096DCF8FEF84B915B80895883016
:1001300060F443B121E030E0B90102C0660F771FDF
:100140008A95E2F7CB01842B85B90895883068F44D
:1001500043B121E030E0B90102C0660F771F8A95F4
:10016000E2F7CB018095842385B90895883060F447
:1001700043B121E030E0B90102C0660F771F8A95D4
:10018000E2F7CB01842785B9089511B80895883026
:1001900070F490B1492F409521E030E0B90102C0E0
:1001A000660F771F8A95E2F7CB018423089580E0DC
:1001B0000895CF93DF931F921F92CDB7DEB75BD622
:1001C0009A83898380E0D2DF68EE73E0CE010196E6
:1001D0009ED7F8CFCF93DF931F921F92CDB7DEB794
:1001E0004AD69A83898381E0C1DF64EF71E0CE0152
:1001F00001968DD7F8CF82E090E0C9DF892B19F006
:1002000082E095DFF8CF82E0A1DFF5CF20E040E08B
:1002100050E060E070E0809122029091230243D48C
:1002200087E090E0B4DF892BD9F320E040E050E094
:1002300060E070E08091220290912302A8D320E038
:1002400040E050E060E070E0809122029091230253
:100250002AD48130A1F7E4CFCF93DF931F921F926E
:10026000CDB7DEB708D69A83898362E370E0CE010A
:1002700001964DD720E040E050E060E070E08091D2
:100280002202909123020FD48130A1F704E110E003
:1002900087E04DDF64E670E0CE01019638D787E055
:1002A00055DF64E670E0CE01019631D701501109A7
:1002B00079F720E040E050E060E070E080912202B9
:1002C0009091230264D3D6CF60DF2DDF43E060E05E
:1002D00081E012D39093230280932202009731F0A1
:1002E00020E040E050E060E070E051D3A12CB12C60
:1002F000C12CD12CE12CF12C00E020E030E045E5D0
:1003000050E062E072E089ED90E0A5D420E030E0BA
:1003100045E550E067E072E08AEE90E09CD420E092
:1003200030E045E550E06CE072E08BEF90E093D474
:1003300020E030E045E550E061E172E086E091E0E8
:100340008AD420E030E045E550E066E172E08CE2DE
:1003500091E081D461D5FFCFFC0103969283818324
:100360002FEF3FEF348323839683858390878783A2
:1003700010820895FC01118610860895CF93DF93B3
:10038000FC01DB0121813281E9018A819B81139685
:100390009C938E9312978181928115969C938E9354
:1003A00014978A819B81EC017D836C83E9017B83B7
:1003B0006A83728361831996FC93EE931897808108
:1003C0008F5F8083DF91CF910895CF93DF93EB010F
:1003D000488159814F3F2FEF520731F4DC011796C6
:1003E000ED91FC91189717C0FC013396DC0115962E
:1003F0002D913C911697D9012D913C9142175307AD
:1004000050F00280F381E02DA281B3812D913C91C7
:1004100042175307B0F7A281B381BB83AA83159615
:10042000DC93CE931497FD83EC83D383C2839987A7
:100430008887FC0120812F5F2083DF91CF91089571
:10044000FC01A281B3818481958115969C938E9342
:100450001497A481B5818281938113969C938E9386
:100460001297A085B18511968D919C911297E817EE
:10047000F90731F48481958112969C938E9311979C
:10048000118610868C9181508C93089531E1FC0186
:100490003083319722E220833197A3E3A083319701
:1004A0006083319770833197108231971082319732
:1004B00060E8608331971082319710823197108203
:1004C000319762E06083319763E06083319764E045
:1004D0006083319765E06083319766E06083319790
:1004E00067E06083319768E06083319769E06083FB
:1004F000319760E1608331973083319732E1308307
:10050000319733E13083319734E13083319735E1EE
:100510003083319736E13083319737E1308331973B
:1005200038E13083319739E13083319730E23083DD
:10053000319731E2308331972083319723E2208352
:100540003197408331975083319726E2208331974A
:1005500027E22083319728E22083319729E2208304
:10056000319720E32083319721E3208389970895F1
:100570001092290189EF809328018BE0809321015B
:10058000E3E7F0E0808182608083A0913508B0913C
:100590003608CD91CDBFDD91DEBFFF91EF91DF91A8
:1005A000CF91BF91AF919F918F917F916F915F910B
:1005B0004F913F912F911F910F91FF90EF90DF90FE
:1005C000CF90BF90AF909F908F907F906F905F90F3
:1005D0004F903F902F901F900F900CBE0F900BBE2E
:1005E0000F900FBE0F90089581E008950F920FB6FF
:1005F000F8940F920BB60F920CB60F921F92112423
:100600002F923F924F925F926F927F928F929F9222
:10061000AF92BF92CF92DF92EF92FF920F931F9310
:100620002F933F934F935F936F937F938F939F93FA
:10063000AF93BF93CF93DF93EF93FF93A0913508D0
:10064000B09136080DB60D920EB60D92A5D5A091BB
:100650003508B0913608CD91CDBFDD91DEBFFF9159
:10066000EF91DF91CF91BF91AF919F918F917F914A
:100670006F915F914F913F912F911F910F91FF903B
:10068000EF90DF90CF90BF90AF909F908F907F9032
:100690006F905F904F903F902F901F900F900CBEE7
:1006A0000F900BBE0F900FBE0F9008950F920FB6D4
:1006B000F8940F920BB60F920CB60F921F92112462
:1006C0002F923F924F925F926F927F928F929F9262
:1006D000AF92BF92CF92DF92EF92FF920F931F9350
:1006E0002F933F934F935F936F937F938F939F933A
:1006F000AF93BF93CF93DF93EF93FF93A091350810
:10070000B09136080DB60D920EB60D92BED344D5FB
:10071000A0913508B0913608CD91CDBFDD91DEBFF7
:10072000FF91EF91DF91CF91BF91AF919F918F9109
:100730007F916F915F914F913F912F911F910F91F9
:10074000FF90EF90DF90CF90BF90AF909F908F90F1
:100750007F906F905F904F903F902F901F900F90E1
:100760000CBE0F900BBE0F900FBE0F9008959EDF32
:100770001895CF93DF93EC0178D320912402309128
:100780002502C9018C0F9D1F8C3D45E0940758F44C
:100790002817390758F4E901CA5DDD4F9093250207
:1007A0008093240205C0C0E0D0E002C0C0E0D0E0E9
:1007B0002DD4CE01DF91CF9108950895CF93DF938B
:1007C000EC018C8D882399F1411116C0482F50E01F
:1007D0008C819D81EDD52C8D8C819D81820F911D09
:1007E0009D838C832A813B818217930700F1888146
:1007F00099819D838C831BC0482F50E08E819F81FF
:10080000D7D58C8D90E09195819591092E813F816E
:10081000280F391F3F832E834881598124173507BC
:1008200030F42A813B81820F931F9F838E838A8DB0
:100830008F5F8A8FDF91CF910895FC018081918134
:10084000009799F0448D50E026813781240F351FA1
:1008500037832683A281B3812A173B0710F0978341
:100860008683CB0166817781A3C508950F931F937B
:10087000CF93DF93EC010FB6F8940F928E8D18167C
:10088000A4F48989811105C010C08989811104C02F
:100890000CC08E010F5E1F4FC80104D5811184D595
:1008A0008E8D81508E8F181684F38FEF8E8F0F9060
:1008B0000FBE0FB6F8940F928D8D1816A4F488858C
:1008C000811105C010C08885811104C00CC08E0143
:1008D000085F1F4FC801E6D4811166D58D8D815008
:1008E0008D8F181684F38FEF8D8F0F900FBEDF91D1
:1008F000CF911F910F910895CF92DF92EF92FF92C7
:100900000F931F93CF93DF938823A9F1E62EF82E40
:100910008FE190E02EDFEC01892B79F1CE2CD12CE8
:10092000FC9C8001FD9C100D1124C801019621DF63
:10093000998388830097D1F09C01200F311F3B835E
:100940002A831A8E9D838C830C191D09080F191F89
:100950001F830E83FB8EEC8E8FEF8D8F8E8FCE01DB
:100960000896FADCCE014196F7DC07C0CE0125DF00
:10097000C0E0D0E002C0C0E0D0E0CE01DF91CF9176
:100980001F910F91FF90EF90DF90CF9008959F926D
:10099000AF92BF92CF92DF92EF92FF920F931F938D
:1009A000CF93DF9300D01F921F92CDB7DEB78C019B
:1009B0006B015D834C83922EB12CAA24A3947C01FD
:1009C00088E0E80EF11C0FB6F8940F92F801928DB2
:1009D000838D981790F4492DB601C801EFDEF80118
:1009E0008189882331F0C80141965CD4813009F4B3
:1009F000FDDD0F900FBE81E045C08C819D81892B6C
:100A000021F40F900FBE80E03DC0B11004C0CE01B4
:100A1000019689D4BA2C0F900FBE27D20FB6F89446
:100A20000F92F801858D8F3F09F4158EF801868DA0
:100A30008F3F09F4168E0F900FBEBE016C5F7F4F83
:100A4000CE0101967BD4811119C00FB6F8940F9294
:100A5000F801928D0F900FBE838D98130BC06C819F
:100A60007D81C70105D4C80101DFD0D28111ABCF90
:100A7000BDDDA9CFC801FADEC9D2A5CFC801F6DE17
:100A8000C5D280E00F900F900F900F900F90DF91E4
:100A9000CF911F910F91FF90EF90DF90CF90BF907B
:100AA000AF909F9008959F92AF92BF92CF92DF92A6
:100AB000EF92FF920F931F93CF93DF9300D01F927B
:100AC0001F92CDB7DEB78C016B015D834C83922EF4
:100AD000B12CAA24A3947C0181E1E80EF11C0FB68D
:100AE000F8940F92F801828D882321F1E680F78037
:100AF000B601C801A2DE91100EC0F801828D8150AE
:100B0000828F8085882391F0C8010896CBD38130ED
:100B100069F46CDD0BC0F801F782E68281898823D5
:100B200029F0C8014196BED3811160DD0F900FBE40
:100B300081E044C08C819D81892B21F40F900FBEF0
:100B400080E03CC0B11004C0CE010196ECD3BA2CB9
:100B50000F900FBE8AD10FB6F8940F92F801858DD1
:100B60008F3F09F4158EF801868D8F3F09F4168E9C
:100B70000F900FBEBE016C5F7F4FCE010196DED39A
:100B8000811118C00FB6F8940F92F801828D0F9062
:100B90000FBE81110BC06C817D81C70169D3C80173
:100BA00065DE34D281119BCF21DD99CFC8015EDE95
:100BB0002DD295CFC8015ADE29D280E00F900F9038
:100BC0000F900F900F90DF91CF911F910F91FF9099
:100BD000EF90DF90CF90BF90AF909F900895CCE2C0
:100BE000D8E088818230E8F301DDFBCFCF93DF933B
:100BF000EC01E0913508F09136089383828380916F
:100C00000A0890910B08C817D90760F4609135085D
:100C10007091360880911608909117086E5F7F4F8B
:100C2000D4DB16C0609135087091360880911808A1
:100C3000909119086E5F7F4FC8DB80910002909100
:100C40000102C817D90720F4D0930102C093000213
:100C5000DF91CF9108954F925F926F927F928F9222
:100C60009F92AF92BF92CF92DF92EF92FF920F933B
:100C7000CF93DF935C014B013A01290181E290E0BF
:100C800078DDEC01892B09F49CC0C114D10409F072
:100C900094C0C3016EDD988F8F8B009719F4CE013D
:100CA0008CDD8FC0A30165EA70E08BD393012150E6
:100CB00031098F89988D3C01620E731E48E050E027
:100CC000B401CE01499684D318A21E8A6E0182E037
:100CD000C80ED11CC6014EDBCE010C964BDBD9876A
:100CE000C88781E090E09D878C87DB8BCA8BA2014F
:100CF000B501C301CBDB99838883E114F10419F0BA
:100D0000F701D183C0830FB6F8940F9280910C083D
:100D10008F5F80930C088091350890913608892B5D
:100D200049F4D0933608C093350880910C0881307F
:100D300081F449C08091070881110BC0E09135080A
:100D4000F09136088689081720F0D0933608C093B2
:100D500035088E8990910908981710F48093090836
:100D6000909102089F5F909302089091080898174D
:100D700010F48093080890E09C01220F331F220F8B
:100D8000331F220F331F820F931FB601845D974FCD
:100D9000F5DA0F900FBE80910708882351F0E0919B
:100DA0003508F09136088689801728F41FDC81E029
:100DB00023C081E021C081E01FC0D88ECF8AC60148
:100DC00071CF8FEF19C08CE298E0C6DA83E298E029
:100DD000C3DA8AE198E0C0DA8DE098E0BDDA83E218
:100DE00098E090931908809318088AE198E090930E
:100DF000170880931608ADCFDF91CF910F91FF9028
:100E0000EF90DF90CF90BF90AF909F908F907F90AA
:100E10006F905F904F900895AF92BF92CF92DF9204
:100E2000EF92FF920F93A12CB12CC12CD12CE12C6D
:100E3000F12C00E020E030E045E550E06DE172E0AB
:100E40008FEE95E008DF813041F4F8948093070835
:100E500010920B0810920A088BDB0F91FF90EF9015
:100E6000DF90CF90BF90AF900895809106088F5F7C
:100E70008093060808950FB6F8940F9280910A089F
:100E800090910B080F900FBE08950F931F93CF936F
:100E9000DF93809106088111AFC080910A0890917C
:100EA0000B08019690930B0880930A0880910A081A
:100EB00090910B08892B99F5809118089091190849
:100EC00020911608309117083093190820931808BC
:100ED0009093170880931608809103088F5F809382
:100EE0000308E0911808F09119088081811107C06A
:100EF0008FEF9FEF909301028093000210C0E0916A
:100F00001808F09119080580F681E02D0680F78118
:100F1000E02D8281938190930102809300022091C1
:100F20000A0830910B088091000290910102281765
:100F3000390708F466C0E0911808F091190880811B
:100F4000882399F0E0911808F09119080580F6813E
:100F5000E02DC681D7818A819B8120910A0830913A
:100F60000B0828173907F8F419C08FEF9FEF9093FB
:100F700001028093000245C0E0911808F091190821
:100F80000580F681E02DC681D7818A819B812091E1
:100F90000A0830910B082817390728F490930102AA
:100FA000809300022EC08E010E5F1F4FC80148DAE9
:100FB0008C899D89892B19F0CE010C9641DA8E8996
:100FC00090910808981710F48093080890E09C010D
:100FD000220F331F220F331F220F331F820F931F45
:100FE000B801845D974FCAD9E0911808F0911908AB
:100FF00080818111C1CFB9CF809105088F5F809327
:101000000508DF91CF911F910F910895CF92DF9244
:10101000EF92FF920F931F93CF93DF930FB6F89445
:101020000F928091060881508093060880910608EF
:1010300081115FC080910C0881112FC05DC0D70164
:101040001596ED91FC911697C681D781CE010C962D
:10105000F7D98E010E5F1F4FC801F2D98E8990918A
:101060000808981710F48093080890E09C01220F5C
:10107000331F220F331F220F331F820F931FB8011C
:10108000845D974F7BD9E0913508F09136089E89B1
:101090008689981758F0DC2C09C0D12C0F2EFDE062
:1010A000EF2EF8E0FF2EF02DCC24C394F7018081C1
:1010B0008111C5CF80910508882379F080910508BA
:1010C000882391F0E2DE8091050881508093050825
:1010D000809105088111F6CF07C0F1E0DF1621F0FD
:1010E00080910408813039F4109204087FDA81E09D
:1010F00003C080E001C080E00F900FBEDF91CF9170
:101100001F910F91FF90EF90DF90CF9008950F9374
:101110001F93CF93DF938C01EB01A7DEF801808151
:101120009181C80FD91F20910A0830910B08281708
:10113000390768F4C817D90730F580910A089091EB
:101140000B08D183C0838C179D07A0F40BC0C81770
:10115000D907A8F080910A0890910B088C179D0779
:1011600070F011C08091350890913608029668D9C8
:10117000CE013CDD4BDF81110AC038DA08C0F8012E
:10118000D183C083EFCFF801D183C083F3CFDF9148
:10119000CF911F910F91089580910608811113C07E
:1011A0008091080890E0FC01EE0FFF1FEE0FFF1F7B
:1011B000EE0FFF1F8E0F9F1FFC01E45DF74F808134
:1011C000882329F01BC081E0809304080895809152
:1011D00008088150809308088091080890E0FC017D
:1011E000EE0FFF1FEE0FFF1FEE0FFF1F8E0F9F1F53
:1011F000FC01E45DF74F8081882349F38091080862
:1012000090E09C01220F331F220F331F220F331F48
:10121000280F391FD901A45DB74F1196ED91FC91AC
:1012200012970280F381E02D1296FC93EE931197B2
:10123000215D374FE217F30729F422813381FD0145
:1012400032832183FC01EE0FFF1FEE0FFF1FEE0F15
:10125000FF1F8E0F9F1FFC01E45DF74F0180F2819D
:10126000E02D868197819093360880933508089504
:10127000CF93DF93EB016091350870913608645F7E
:101280007F4FA3D880913508909136080296D8D820
:1012900080910A0890910B088C0F9D1FA7DCDF91AD
:1012A000CF9108950F931F93CF93DF93DC01159691
:1012B000ED91FC911697C681D7818E01045F1F4F77
:1012C000C801BED88091060881111AC00A501109C0
:1012D000C801B6D88E8990910808981710F48093A9
:1012E000080890E09C01220F331F220F331F220FAA
:1012F000331F820F931FB801845D974F3FD804C0FE
:10130000B8018DE098E03AD8E0913508F0913608C0
:1013100081E02E899689291708F480E0DF91CF912A
:101320001F910F91089520910308FC0120832091C3
:101330000A0830910B08328321830895FC010FB60F
:10134000F8940F92809103089081981749F080914A
:101350000A0890910B082181328182179307F0F4DB
:1013600080910A0890910B0841815281DB012D91F7
:101370003C911197841B950B8217930788F4CF013A
:10138000E0910A08F0910B08BF01641B750B261B46
:10139000370B2D933C93C7DF80E003C081E001C091
:1013A00081E00F900FBE089581E0809304080895B6
:1013B000FB01DC0102C001900D9241505040D8F772
:1013C0000895DC0101C06D9341505040E0F708954D
:1013D000FB01DC014150504048F001900D9200208B
:1013E000C9F701C01D9241505040E0F70895F894AC
:0213F000FFCF2D
:1013F200FFFF4C454431004C454432004C454433D8
:10140200004C454437005377697463680049444C83
:02141200450093
:00000001FF
