S00F000052544F535F48482E73726563DE
S113000071C000008FC000008DC000008BC00000D4
S113001089C0000087C0000085C0000083C00000C4
S113002081C000007FC000007DC000007BC00000D4
S113003079C0000077C0000075C0000073C00000E4
S113004071C000006FC000006DC000006BC00000F4
S113005069C0000067C0000065C0000063C0000004
S113006061C000005FC000005DC000005BC0000014
S113007059C0000057C0000055C0000053C0000024
S113008051C000004FC000004DC000004BC0000034
S113009049C0000047C0000045C0000043C0000044
S11300A041C000003FC000003DC000003BC0000054
S11300B039C0000037C0000035C0000026C300006E
S11300C031C000002FC000002DC000002BC0000074
S11300D029C0000027C0000025C0000023C0000084
S11300E021C0000011241FBECFEFD1E2DEBFCDBF7F
S11300F000E00CBF12E0A0E0B2E0E2EDF3E100E0CA
S11301000BBF02C007900D92A432B107D9F728E0C3
S1130110A4E2B2E001C01D92AC33B207E1F7B7D05C
S11301200C94E7096DCF8FEF84B915B8089511B811
S11301300895883070F490B1492F409521E030E063
S1130140B90102C0660F771F8A95E2F7CB018423B9
S1130150089580E008950F931F93522F8B019C0103
S11301600C52114021093109053D104C2140310543
S1130170D8F545504430C0F520E22093C00028E172
S11301802093C100440F4093C200553431F4E2EC93
S1130190F0E020812062208307C05F3429F4E2EC80
S11301A0F0E0208120632083DC01CB01880F991FBC
S11301B0AA1FBB1F880F991FAA1FBB1F9C01AD015B
S11301C0220F331F441F551F220F331F441F551F77
S11301D060E074E284EF90E00E94A60921503109A6
S11301E03093C5002093C4001F910F910895E0EC53
S11301F0F0E0908195FFFDCF8093C6000895CF93E2
S1130200DF93EC018881882329F02196F0DF89911E
S11302108111FCCFDF91CF910895CF93DF931F928B
S11302201F92CDB7DEB7F5D59A83898380E090E03D
S113023080DF892BD9F320E040E050E060E070E0FB
S11302408091250290912602FCD380912402815052
S11302508093240282E092E0D2DF20E040E050E08C
S113026064E272E080912702909128025ED320E03C
S113027040E050E060E070E0809125029091260219
S113028054D364EF71E0CE0101960FD7CFCF4FDF87
S11302904ADF48E050E060E072EC81E090E05BDF30
S11302A043E060E081E0F6D2909326028093250239
S11302B0009731F020E040E050E060E070E035D39A
S11302C040E061E08AE0E6D290932802809327021E
S11302D0A12CB12CC12CD12CE12CF12C01E020E07B
S11302E030E045E550E06AE172E08DE091E081D4D0
S11302F061D5FFCFFC010396928381832FEF3FEFFB
S1130300348323839683858390878783108208951B
S1130310FC01118610860895CF93DF93FC01DB0165
S113032021813281E9018A819B8113969C938E936A
S113033012978181928115969C938E9314978A814A
S11303409B81EC017D836C83E9017B836A837283E7
S113035061831996FC93EE93189780818F5F808355
S1130360DF91CF910895CF93DF93EB0148815981B9
S11303704F3F2FEF520731F4DC011796ED91FC91BA
S1130380189717C0FC013396DC0115962D913C910A
S11303901697D9012D913C914217530750F00280D2
S11303A0F381E02DA281B3812D913C914217530733
S11303B0B0F7A281B381BB83AA831596DC93CE9355
S11303C01497FD83EC83D383C28399878887FC01C8
S11303D020812F5F2083DF91CF910895FC01A281BA
S11303E0B3818481958115969C938E931497A481EF
S11303F0B5818281938113969C938E931297A085E5
S1130400B18511968D919C911297E817F90731F4F3
S11304108481958112969C938E93119711861086F0
S11304208C9181508C93089531E1FC013083319794
S113043022E220833197A3E3A0833197608331972D
S113044070833197108231971082319760E860830E
S1130450319710823197108231971082319762E080
S11304606083319763E06083319764E06083319700
S113047065E06083319766E06083319767E060836D
S1130480319768E06083319769E06083319760E178
S1130490608331973083319732E13083319733E190
S11304A03083319734E13083319735E130833197AC
S11304B036E13083319737E13083319738E1308347
S11304C0319739E13083319730E23083319731E22B
S11304D0308331972083319723E2208331974083FF
S11304E031975083319726E22083319727E2208386
S11304F0319728E22083319729E22083319720E342
S11305002083319721E3208389970895109229014C
S113051089EF809328018BE080932101E3E7F0E0E9
S1130520808182608083A0913A08B0913B08CD918C
S1130530CDBFDD91DEBFFF91EF91DF91CF91BF91F0
S1130540AF919F918F917F916F915F914F913F9167
S11305502F911F910F91FF90EF90DF90CF90BF905C
S1130560AF909F908F907F906F905F904F903F904F
S11305702F901F900F900CBE0F900BBE0F900FBECC
S11305800F90089581E008950F920FB6F8940F929A
S11305900BB60F920CB60F921F9211242F923F921A
S11305A04F925F926F927F928F929F92AF92BF927F
S11305B0CF92DF92EF92FF920F931F932F933F936B
S11305C04F935F936F937F938F939F93AF93BF9357
S11305D0CF93DF93EF93FF93A0913A08B0913B0838
S11305E00DB60D920EB60D92A5D5A0913A08B09114
S11305F03B08CD91CDBFDD91DEBFFF91EF91DF913F
S1130600CF91BF91AF919F918F917F916F915F91A6
S11306104F913F912F911F910F91FF90EF90DF9099
S1130620CF90BF90AF909F908F907F906F905F908E
S11306304F903F902F901F900F900CBE0F900BBEC9
S11306400F900FBE0F9008950F920FB6F8940F926B
S11306500BB60F920CB60F921F9211242F923F9259
S11306604F925F926F927F928F929F92AF92BF92BE
S1130670CF92DF92EF92FF920F931F932F933F93AA
S11306804F935F936F937F938F939F93AF93BF9396
S1130690CF93DF93EF93FF93A0913A08B0913B0877
S11306A00DB60D920EB60D92BED344D5A0913A0864
S11306B0B0913B08CD91CDBFDD91DEBFFF91EF91AD
S11306C0DF91CF91BF91AF919F918F917F916F9166
S11306D05F914F913F912F911F910F91FF90EF9058
S11306E0DF90CF90BF90AF909F908F907F906F904E
S11306F05F904F903F902F901F900F900CBE0F90E3
S11307000BBE0F900FBE0F9008959EDF1895CF93E8
S1130710DF93EC0178D32091290230912A02C90198
S11307208C0F9D1F8C3D45E0940758F4281739071A
S113073058F4E901C55DDD4F90932A0280932902A4
S113074005C0C0E0D0E002C0C0E0D0E02DD4CE01AE
S1130750DF91CF9108950895CF93DF93EC018C8DB1
S1130760882399F1411116C0482F50E08C819D8156
S11307700FD62C8D8C819D81820F911D9D838C833E
S11307802A813B818217930700F1888199819D8397
S11307908C831BC0482F50E08E819F81F9D58C8DAE
S11307A090E09195819591092E813F81280F391F01
S11307B03F832E83488159812417350730F42A81D9
S11307C03B81820F931F9F838E838A8D8F5F8A8FD5
S11307D0DF91CF910895FC0180819181009799F078
S11307E0448D50E026813781240F351F37832683BB
S11307F0A281B3812A173B0710F097838683CB012C
S113080066817781C5C508950F931F93CF93DF93B6
S1130810EC010FB6F8940F928E8D1816A4F4898902
S1130820811105C010C08989811104C00CC08E01DA
S11308300F5E1F4FC80104D5811184D58E8D815060
S11308408E8F181684F38FEF8E8F0F900FBE0FB616
S1130850F8940F928D8D1816A4F48885811105C023
S113086010C08885811104C00CC08E01085F1F4F21
S1130870C801E6D4811166D58D8D81508D8F1816EF
S113088084F38FEF8D8F0F900FBEDF91CF911F9167
S11308900F910895CF92DF92EF92FF920F931F93DF
S11308A0CF93DF938823A9F1E62EF82E8FE190E011
S11308B02EDFEC01892B79F1CE2CD12CFC9C80010C
S11308C0FD9C100D1124C801019621DF99838883B2
S11308D00097D1F09C01200F311F3B832A831A8E8D
S11308E09D838C830C191D09080F191F1F830E8308
S11308F0FB8EEC8E8FEF8D8F8E8FCE010896FADCF7
S1130900CE014196F7DC07C0CE0125DFC0E0D0E080
S113091002C0C0E0D0E0CE01DF91CF911F910F91D2
S1130920FF90EF90DF90CF9008959F92AF92BF9287
S1130930CF92DF92EF92FF920F931F93CF93DF93A7
S113094000D01F921F92CDB7DEB78C016B015D837F
S11309504C83922EB12CAA24A3947C0188E0E80E47
S1130960F11C0FB6F8940F92F801928D838D9817AD
S113097090F4492DB601C801EFDEF801818988237E
S113098031F0C80141965CD4813009F4FDDD0F904B
S11309900FBE81E045C08C819D81892B21F40F908D
S11309A00FBE80E03DC0B11004C0CE01019689D4D1
S11309B0BA2C0F900FBE27D20FB6F8940F92F801FD
S11309C0858D8F3F09F4158EF801868D8F3F09F4CC
S11309D0168E0F900FBEBE016C5F7F4FCE01019645
S11309E07BD4811119C00FB6F8940F92F801928D3F
S11309F00F900FBE838D98130BC06C817D81C7014E
S1130A0005D4C80101DFD0D28111ABCFBDDDA9CFA0
S1130A10C801FADEC9D2A5CFC801F6DEC5D280E08E
S1130A200F900F900F900F900F90DF91CF911F9127
S1130A300F91FF90EF90DF90CF90BF90AF909F9079
S1130A4008959F92AF92BF92CF92DF92EF92FF925E
S1130A500F931F93CF93DF9300D01F921F92CDB7B4
S1130A60DEB78C016B015D834C83922EB12CAA24DA
S1130A70A3947C0181E1E80EF11C0FB6F8940F9267
S1130A80F801828D882321F1E680F780B601C80140
S1130A90A2DE91100EC0F801828D8150828F808574
S1130AA0882391F0C8010896CBD3813069F46CDDBA
S1130AB00BC0F801F782E6828189882329F0C801F6
S1130AC04196BED3811160DD0F900FBE81E044C01A
S1130AD08C819D81892B21F40F900FBE80E03CC056
S1130AE0B11004C0CE010196ECD3BA2C0F900FBE06
S1130AF08AD10FB6F8940F92F801858D8F3F09F4CF
S1130B00158EF801868D8F3F09F4168E0F900FBE57
S1130B10BE016C5F7F4FCE010196DED3811118C0F8
S1130B200FB6F8940F92F801828D0F900FBE8111C9
S1130B300BC06C817D81C70169D3C80165DE34D2E5
S1130B4081119BCF21DD99CFC8015EDE2DD295CFD7
S1130B50C8015ADE29D280E00F900F900F900F90B9
S1130B600F90DF91CF911F910F91FF90EF90DF9045
S1130B70CF90BF90AF909F900895C1E3D8E0888153
S1130B808230E8F301DDFBCFCF93DF93EC01E091FA
S1130B903A08F0913B089383828380910F089091E7
S1130BA01008C817D90760F460913A0870913B089F
S1130BB080911B0890911C086E5F7F4FD4DB16C098
S1130BC060913A0870913B0880911D0890911E082D
S1130BD06E5F7F4FC8DB8091000290910102C817BD
S1130BE0D90720F4D0930102C0930002DF91CF9182
S1130BF008954F925F926F927F928F929F92AF92DD
S1130C00BF92CF92DF92EF92FF920F93CF93DF9335
S1130C105C014B013A01290181E290E078DDEC01AD
S1130C20892B09F49CC0C114D10409F094C0C301F8
S1130C306EDD988F8F8B009719F4CE018CDD8FC0F9
S1130C40A30165EA70E0ADD39301215031098F8986
S1130C50988D3C01620E731E48E050E0B401CE0151
S1130C604996A6D318A21E8A6E0182E0C80ED11C32
S1130C70C6014EDBCE010C964BDBD987C88781E0D9
S1130C8090E09D878C87DB8BCA8BA201B501C301E1
S1130C90CBDB99838883E114F10419F0F701D18344
S1130CA0C0830FB6F8940F92809111088F5F8093E0
S1130CB0110880913A0890913B08892B49F4D0930C
S1130CC03B08C0933A0880911108813081F449C0EF
S1130CD080910C0881110BC0E0913A08F0913B0817
S1130CE08689081720F0D0933B08C0933A088E8970
S1130CF090910E08981710F480930E0890910708AD
S1130D009F5F9093070890910D08981710F48093B3
S1130D100D0890E09C01220F331F220F331F220F76
S1130D20331F820F931FB6018F5C974FF5DA0F9034
S1130D300FBE80910C08882351F0E0913A08F0919D
S1130D403B088689801728F41FDC81E023C081E0FA
S1130D5021C081E01FC0D88ECF8AC60171CF8FEF2A
S1130D6019C081E398E0C6DA88E298E0C3DA8FE13B
S1130D7098E0C0DA82E198E0BDDA88E298E09093E6
S1130D801E0880931D088FE198E090931C088093BF
S1130D901B08ADCFDF91CF910F91FF90EF90DF90C3
S1130DA0CF90BF90AF909F908F907F906F905F9007
S1130DB04F900895AF92BF92CF92DF92EF92FF923D
S1130DC00F93A12CB12CC12CD12CE12CF12C00E0DF
S1130DD020E030E045E550E06EE172E08DEB95E017
S1130DE008DF813041F4F89480930C0810921008C5
S1130DF010920F088BDB0F91FF90EF90DF90CF9054
S1130E00BF90AF90089580910B088F5F80930B087B
S1130E1008950FB6F8940F9280910F0890911008DE
S1130E200F900FBE08950F931F93CF93DF9380917C
S1130E300B088111AFC080910F08909110080196A2
S1130E409093100880930F0880910F0890911008D8
S1130E50892B99F580911D0890911E0820911B08FB
S1130E6030911C0830931E0820931D0890931C0891
S1130E7080931B08809108088F5F80930808E09195
S1130E801D08F0911E088081811107C08FEF9FEF2C
S1130E90909301028093000210C0E0911D08F0912C
S1130EA01E080580F681E02D0680F781E02D828101
S1130EB09381909301028093000220910F08309156
S1130EC0100880910002909101022817390708F454
S1130ED066C0E0911D08F0911E088081882399F076
S1130EE0E0911D08F0911E080580F681E02DC68171
S1130EF0D7818A819B8120910F083091100828178F
S1130F003907F8F419C08FEF9FEF90930102809393
S1130F10000245C0E0911D08F0911E080580F6818D
S1130F20E02DC681D7818A819B8120910F08309161
S1130F3010082817390728F49093010280930002BF
S1130F402EC08E010E5F1F4FC80148DA8C899D891F
S1130F50892B19F0CE010C9641DA8E8990910D08F7
S1130F60981710F480930D0890E09C01220F331F12
S1130F70220F331F220F331F820F931FB8018F5C80
S1130F80974FCAD9E0911D08F0911E088081811104
S1130F90C1CFB9CF80910A088F5F80930A08DF918F
S1130FA0CF911F910F910895CF92DF92EF92FF920C
S1130FB00F931F93CF93DF930FB6F8940F92809102
S1130FC00B08815080930B0880910B0881115FC03E
S1130FD08091110881112FC05DC0D7011596ED9144
S1130FE0FC911697C681D781CE010C96F7D98E0154
S1130FF00E5F1F4FC801F2D98E8990910D08981782
S113100010F480930D0890E09C01220F331F220FEF
S1131010331F220F331F820F931FB8018F5C974F2A
S11310207BD9E0913A08F0913B089E89868998170C
S113103058F0DC2C09C0D12C0F2EF2E1EF2EF8E091
S1131040FF2EF02DCC24C394F70180818111C5CFEC
S113105080910A08882379F080910A08882391F006
S1131060E2DE80910A08815080930A0880910A0880
S11310708111F6CF07C0F1E0DF1621F08091090855
S1131080813039F4109209087FDA81E003C080E0EE
S113109001C080E00F900FBEDF91CF911F910F919F
S11310A0FF90EF90DF90CF9008950F931F93CF930D
S11310B0DF938C01EB01A7DEF80180819181C80FD9
S11310C0D91F20910F08309110082817390768F4A8
S11310D0C817D90730F580910F0890911008D18373
S11310E0C0838C179D07A0F40BC0C817D907A8F0BC
S11310F080910F08909110088C179D0770F011C013
S113110080913A0890913B08029668D9CE013CDD63
S11311104BDF81110AC038DA08C0F801D183C083DB
S1131120EFCFF801D183C083F3CFDF91CF911F912B
S11311300F91089580910B08811113C080910D08BF
S113114090E0FC01EE0FFF1FEE0FFF1FEE0FFF1FDD
S11311508E0F9F1FFC01EF5CF74F8081882329F0DD
S11311601BC081E080930908089580910D08815087
S113117080930D0880910D0890E0FC01EE0FFF1F95
S1131180EE0FFF1FEE0FFF1F8E0F9F1FFC01EF5C82
S1131190F74F8081882349F380910D0890E09C01EA
S11311A0220F331F220F331F220F331F280F391F23
S11311B0D901AF5CB74F1196ED91FC911297028063
S11311C0F381E02D1296FC93EE9311972C5C374F2C
S11311D0E217F30729F422813381FD01328321834D
S11311E0FC01EE0FFF1FEE0FFF1FEE0FFF1F8E0F10
S11311F09F1FFC01EF5CF74F0180F281E02D868197
S1131200978190933B0880933A080895CF93DF9396
S1131210EB0160913A0870913B08645F7F4FA3D85B
S113122080913A0890913B080296D8D880910F0893
S1131230909110088C0F9D1FA7DCDF91CF9108952A
S11312400F931F93CF93DF93DC011596ED91FC91DF
S11312501697C681D7818E01045F1F4FC801BED87F
S113126080910B0881111AC00A501109C801B6D81F
S11312708E8990910D08981710F480930D0890E0D2
S11312809C01220F331F220F331F220F331F820FA3
S1131290931FB8018F5C974F3FD804C0B80182E117
S11312A098E03AD8E0913A08F0913B0881E02E8921
S11312B09689291708F480E0DF91CF911F910F914F
S11312C0089520910808FC01208320910F08309193
S11312D01008328321830895FC010FB6F8940F920D
S11312E0809108089081981749F080910F08909197
S11312F010082181328182179307F0F480910F083E
S11313009091100841815281DB012D913C911197FC
S1131310841B950B8217930788F4CF01E0910F0883
S1131320F0911008BF01641B750B261B370B2D931E
S11313303C93C7DF80E003C081E001C081E00F90EF
S11313400FBE089581E0809309080895A1E21A2E42
S1131350AA1BBB1BFD010DC0AA1FBB1FEE1FFF1F55
S1131360A217B307E407F50720F0A21BB30BE40BA5
S1131370F50B661F771F881F991F1A9469F76095EC
S11313807095809590959B01AC01BD01CF010895A6
S1131390FB01DC0102C001900D9241505040D8F78E
S11313A00895DC0101C06D9341505040E0F7089569
S11313B0FB01DC014150504048F001900D920020A7
S11313C0C9F701C01D9241505040E0F70895F894C8
S10513D0FFCF49
S11313D2FFFF44656372656D656E74656400696ED2
S11313E26372656D656E74656400446563004944A7
S10713F24C45000062
S9030000FC
