:1000000071C0000086C0000084C0000082C00000F3
:1000100080C000007EC000007CC000007AC00000EC
:1000200078C0000076C0000074C0000072C00000FC
:1000300070C000006EC000006CC000006AC000000C
:1000400068C0000066C0000064C0000062C000001C
:1000500060C000005EC000005CC000005AC000002C
:1000600058C0000056C0000054C0000052C000003C
:1000700050C000004EC000004CC000004AC000004C
:1000800048C0000046C0000044C0000042C000005C
:1000900040C000003EC000003CC000003AC000006C
:1000A00038C0000036C0000034C0000032C000007C
:1000B00030C000002EC000002CC000002AC000008C
:1000C00028C0000026C0000024C0000022C000009C
:1000D00020C000001EC000001CC000001AC00000AC
:1000E00018C0000011241FBECFEFD1E2DEBFCDBF8C
:1000F00000E00CBF12E0A0E0B2E0E4E0F7E000E0D6
:100100000BBF02C007900D92A237B107D9F78DD16E
:10011000F7C276CF882329F090E000009F5F891313
:10012000FCCF0895CF93DF93C2E0D1E08881806453
:10013000888384E0EFDF88818F7B888381E0EADF3A
:10014000DF91CF910895E2E0F1E0208190E0AC01F1
:10015000440F551F4871277E242B20832EB1AC01FC
:10016000440F551F440F551F4870277F242B2EB96D
:1001700024B3880F991F82959295907F9827807F4E
:1001800098278072922F9F7D892B84BB08951F939F
:10019000CF93DF93182FC2E0D1E0888180628883FB
:1001A00081E0B8DF812F82958F70CDDFBBDF812F9B
:1001B000CADFB8DF88818F7D88838FE39FE1019755
:1001C000F1F700C00000DF91CF911F9108951F93B8
:1001D000CF93DF93182FC2E0D1E088818F7D888391
:1001E00081E098DF812F82958F70ADDF9BDF812FBB
:1001F000AADF98DF8881806288838FE39FE101977F
:10020000F1F700C00000DF91CF911F910895E1E068
:10021000F1E08081886780836B9A9D9A2FEF80E759
:1002200092E0215080409040E1F700C00000A59A84
:10023000739A78DF8FE39CE90197F1F700C0000023
:1002400071DF8FE39CE90197F1F700C000006ADFDE
:100250008FE39CE90197F1F700C00000A59862DFE9
:1002600088E2B5DF88E0B3DF81E0B1DF86E0AFDFB1
:100270008CE0ADCF089581E0AACF0895CF93DF93AE
:10028000CDB7DEB7A0970FB6F894DEBF0FBECDBFD7
:1002900090E2E0E0F2E0DE01119601900D929A9575
:1002A000E1F7803180F4623070F4E1E0F0E0EC0FCF
:1002B000FD1F90E1699FE00DF11D1124E80FF11D74
:1002C0008081806884DFA0960FB6F894DEBF0FBEF1
:1002D000CDBFDF91CF9108955ACF08951F93CF934B
:1002E000DF93EC0110E006C0FE01E80FF91F8081EA
:1002F0004EDF1F5F812F90E0FE0101900020E9F7A3
:100300003197EC1BFD0B8E179F0770F3DF91CF9198
:100310001F9108950F931F93CF93DF93CDB7DEB74F
:100320002A970FB6F894DEBF0FBECDBF8E010F5FC8
:100330001F4F2AE0F80111922A95E9F74AE0B80127
:10034000ACD1C801CBDF2A960FB6F894DEBF0FBE42
:10035000CDBFDF91CF911F910F9108950F931F9300
:10036000CF93DF9328E0829FC0011124D82FD0645F
:10037000062F172FC0E08D2F8C2B29DFF8018191DC
:100380008F0105DFCF5FC830B1F7DF91CF911F91AB
:100390000F910895823030F4623020F4880F8C6021
:1003A000862B15CF089580E112CF089584E10FCFF9
:1003B000089588E10CCF08958CE109CF0895ECE70A
:1003C000F0E0808180668083EAE7F0E08081876CDE
:1003D00080838AE19FDE809179008A3040F0803509
:1003E00040F0883740F0883C40F080E0089581E09C
:1003F000089582E0089583E0089584E008958111CE
:1004000001C081E09FEF94B964E670E09B01281B76
:100410003109922F80E01AD16093B30081E080937C
:10042000B10083EC8093B0000895CF93DF93CDB7F4
:10043000DEB72F970FB6F894DEBF0FBECDBF8FE0AB
:10044000E2E3F2E0DE01119601900D928A95E1F768
:10045000DEDE69E672E080E081DF61E672E081E085
:100460007DDF69E572E082E079DF61E572E083E0DB
:1004700075DF69E472E084E071DF61E472E085E0D9
:100480006DDFF9DE60E082E0F9DE80E292E026DFF7
:100490002FEF81EE94E0215080409040E1F700C0C2
:1004A0000000E9DE61E083E0E9DE89E292E016DF48
:1004B0002FEF81EE94E0215080409040E1F700C0A2
:1004C0000000D9DE81E408DF82E406DF83E404DF94
:1004D00080E202DF80E000DF81E0FEDE82E0FCDE21
:1004E00083E0FADE84E0F8DE85E0F6DE61E080E0BD
:1004F000C5DECE010196F2DE2FEF81EE94E02150B1
:1005000080409040E1F700C0000060E081E042DF01
:100510002FEF81EE94E0215080409040E1F700C041
:10052000000061E083E0AADE61E080E033DF2FEFCE
:1005300083ED90E3215080409040E1F700C000003F
:1005400061E081E027DF2FEF81EE94E021508040D1
:100550009040E1F700C0000026DF25DF2FEF81EE9D
:1005600094E0215080409040E1F700C000001EDF81
:100570001DDF1CDF1BDF2FEF87EA91E62150804053
:100580009040E1F700C0000017DF16DF2FEF81EE8B
:1005900094E0215080409040E1F700C0000009DF66
:1005A0002FEF81EE94E0215080409040E1F700C0B1
:1005B000000060E080E0EEDE5EDE00ED1AE860E064
:1005C00084E05CDEC801A6DE61E084E057DEC8019D
:1005D000805A95419FDE2FEF85EA9EE021508040B2
:1005E0009040E1F700C000000F5F1F4F0A3D2AE86E
:1005F000120729F710E0812F02DF8FE19EE40197B7
:10060000F1F700C000001F5F1536A9F714E6812F2F
:10061000F6DE8FE19EE40197F1F700C00000115073
:10062000B0F789E1ECDE27DE0DC025DEC8DE805D97
:1006300053DE9FEF23ED80E3915020408040E1F7AF
:1006400000C00000BCDE813081F71BCF97FB072E76
:1006500016F4009406D077FD08D00BD007FC05D027
:100660003EF4909581959F4F0895709561957F4FC9
:100670000895AA1BBB1B51E107C0AA1FBB1FA617E9
:10068000B70710F0A61BB70B881F991F5A95A9F73B
:1006900080959095BC01CD010895BB274A3031F477
:1006A000992322F4BDE2909581959F4F01C0BB270D
:1006B000FB015527AA27880F991FAA1FA41710F01E
:1006C000A41B83955051B9F7A05DAA3308F0A95D2A
:1006D000A193009779F7B111B1931192CB0100C0AA
:1006E000DC01FC01672F71917723E1F7329704C099
:1006F0007C916D9370836291AE17BF07C8F3089524
:04070000F894FFCF9B
:10070400000102030405060708090A0B0C0D0E0F6D
:10071400404142434445464748494A4B4C4D4E4F5D
:10072400583D322C20593D3000583D332C20593D42
:100734003100537472696E6720696E205352414DC3
:100744000004000E1212120D0000000E1315190EF3
:100754000000000E1515150F00040E111F111111C4
:10076400000E11131519110E000F14141F14141771
:02077400000083
:00000001FF
