:1000000071C0000086C0000084C0000082C00000F3
:1000100080C000007EC000007CC000007AC00000EC
:1000200078C0000076C0000074C0000072C00000FC
:1000300070C000006EC000006CC000006AC000000C
:1000400068C0000066C0000064C0000062C000001C
:1000500060C000005EC000005CC000005AC000002C
:1000600058C0000056C0000054C0000052C000003C
:1000700050C000004EC000004CC000004AC000004C
:1000800048C0000046C0000044C0000042C000005C
:1000900040C000003EC000003CC000003AC000006C
:1000A00038C0000036C0000034C0000032C000007C
:1000B00030C000002EC000002CC000002AC000008C
:1000C00028C0000026C0000024C0000022C000009C
:1000D00020C000001EC000001CC000001AC00000AC
:1000E00018C0000011241FBECFEFD1E2DEBFCDBF8C
:1000F00000E00CBF12E0A0E0B2E0E6EDF4E000E0CA
:100100000BBF02C007900D92A237B107D9F7CAD032
:10011000E0C176CFE2E0F1E0208190E0AC01440F55
:10012000551F4871277E242B20832EB1AC01440F2C
:10013000551F440F551F4870277F242B2EB924B319
:10014000880F991F82959295907F9827807F982796
:100150008072922F9F7D892B84BB0895E2E0F1E0AD
:1001600080818064808300000000000000008081A6
:100170008F7B8083000008951F93CF93DF93182F08
:10018000C2E0D1E088818F7D88830000812F829535
:100190008F70C0DFE3DF812FBDDFE0DF8881806209
:1001A00088838FE39FE10197F1F700C00000DF91A2
:1001B000CF911F910895E1E0F1E08081886780830D
:1001C0006B9A9D9A2FEF80E792E0215080409040FB
:1001D000E1F700C00000A59A739AC0DF8FE39CE9A5
:1001E0000197F1F700C00000B9DF8FE39CE90197A8
:1001F000F1F700C00000B2DF8FE39CE90197F1F74F
:1002000000C00000A598AADF88E2B6DF88E0B4DF6E
:1002100081E0B2DF86E0B0DF8CE0AECF089581E010
:10022000ABCF0895CF93DF93CDB7DEB7A0970FB6CE
:10023000F894DEBF0FBECDBF90E2E0E0F2E0DE0159
:10024000119601900D929A95E1F78131B8F46330DF
:10025000A8F4E62FF0E03197E295F295F07FFE27C3
:10026000E07FFE2721E030E02C0F3D1FE20FF31F5F
:10027000E80FF11D3197808180687EDFA0960FB670
:10028000F894DEBF0FBECDBFDF91CF9108950895E2
:100290000895089508950895089508950895089576
:1002A00008950895CF93DF93CDB7DEB72F970FB69C
:1002B000F894DEBF0FBECDBF8FE0E2E3F2E0DE01D7
:1002C000119601900D928A95E1F775DF69E672E06B
:1002D00080E0E0DF61E672E081E0DCDF69E572E0AA
:1002E00082E0D8DF61E572E083E0D4DF69E472E0A8
:1002F00084E0D0DF61E472E085E0CCDF90DF60E095
:1003000082E090DF80E292E0C3DF2FEF87EA91E6A0
:10031000215080409040E1F700C0000080DF61E0A4
:1003200083E080DF89E292E0B3DF2FEF87EA91E696
:10033000215080409040E1F700C0000070DF81E470
:10034000A6DF82E4A4DF83E4A2DF80E2A0DF80E016
:100350009EDF81E09CDF82E09ADF83E098DF84E02B
:1003600096DF85E094DF61E080E05CDFCE010196FE
:100370008FDF2FEF87EA91E6215080409040E1F730
:1003800000C0000060E081E086DF2FEF83ED90E3A6
:10039000215080409040E1F700C0000061E083E020
:1003A00041DF61E080E077DF2FEF87EA91E62150BF
:1003B00080409040E1F700C0000061E081E06BDF29
:1003C0002FEF87EA91E6215080409040E1F700C08E
:1003D000000062DF61DF2FEF83ED90E3215080406A
:1003E0009040E1F700C0000058DF57DF56DF55DFCF
:1003F0002FEF83ED90E3215080409040E1F700C063
:1004000000004DDF4CDF2FEF83ED90E32150804063
:100410009040E1F700C0000041DF2FEF83ED90E353
:10042000215080409040E1F700C0000060E080E093
:1004300032DFF5DE00ED1AE860E084E0F3DEC801AB
:1004400028DF61E084E0EEDEC801805A954121DFBB
:100450002FEF89E698E1215080409040E1F700C0FD
:1004600000000F5F1F4F0A3D2AE8120729F710E02E
:10047000812F16DF8FEF93EF21E0815090402040D5
:10048000E1F700C000001F5F153691F714E6812FD9
:1004900007DF8FEF93EF21E0815090402040E1F79C
:1004A00000C00000115098F789E1FADEB8DE0DC0F7
:1004B000B6DEF7DE805DEBDE8FEF91EE24E081505B
:1004C00090402040E1F700C00000EBDE813081F772
:0604D00015CFF894FFCFE8
:1004D600000102030405060708090A0B0C0D0E0F9E
:1004E600404142434445464748494A4B4C4D4E4F8E
:1004F600583D322C20593D3000583D332C20593D73
:100506003100537472696E6720696E205352414DF3
:100516000004000E1212120D0000000E1315190E23
:100526000000000E1515150F00040E111F111111F4
:10053600000E11131519110E000F14141F141417A1
:020546000000B3
:00000001FF
