:100000000C9472000C948B000C948B000C948B005D
:100010000C948B000C948B000C948B000C948B0034
:100020000C948B000C948B000C948B000C948B0024
:100030000C948B000C948B000C948B000C948B0014
:100040000C948B000C948B000C948B000C948B0004
:100050000C948B000C948B000C948B000C948B00F4
:100060000C948B000C948B000C948B000C948B00E4
:100070000C948B000C948B000C948B000C948B00D4
:100080000C948B000C948B000C948B000C948B00C4
:100090000C948B000C948B000C948B000C948B00B4
:1000A0000C948B000C948B000C948B000C948B00A4
:1000B0000C948B000C948B000C948B000C948B0094
:1000C0000C948B000C948B000C948B000C948B0084
:1000D0000C948B000C948B000C948B000C948B0074
:1000E0000C948B0011241FBECFEFD1E2DEBFCDBF39
:1000F00000E00CBF12E0A0E0B2E0ECE5F4E000E0CC
:100100000BBF02C007900D92AE35B107D9F70E9420
:100110008D000C942C020C940000CF93DF93CDB78C
:10012000DEB7A7970FB6F894DEBF0FBECDBF87E24C
:10013000E6E3F2E0DE01119601900D928A95E1F777
:100140000E9431010EE428E040E855E260E070E0F2
:1001500080EC90E00E94370181E00E94350161E46B
:1001600080EC90E00E94950162E480EC90E00E94B7
:10017000950163E480EC90E00E9495016DE080ECD5
:1001800090E00E9495016AE080EC90E00E94950169
:1001900082E00E94350180EC90E00E948F01682F80
:1001A00080EC90E00E9495016DE080EC90E00E9470
:1001B00095016AE080EC90E00E94950183E00E9446
:1001C000350180EC90E00E948B018823D1F380EC14
:1001D00090E00E948F01682F80EC90E00E949501D2
:1001E0006DE080EC90E00E9495016AE080EC90E088
:1001F0000E94950184E00E94350160E072E080EC8D
:1002000090E00E949B0185E00E943501BE016F5F76
:100210007F4F80EC90E00E949B0186E00E943501B8
:1002200069E370E380EC90E00E94B0016DE080EC47
:1002300090E00E9495016AE080EC90E00E949501B8
:1002400068E17CEF80EC90E00E94B0016DE080EC12
:1002500090E00E9495016AE080EC90E00E94950198
:100260007BCF8FEF84B915B8089585B908950F93A2
:10027000CF93DF93EC01DB01CA018C529140A109BD
:10028000B109853D904CA140B10508F040C0255012
:100290002430E8F580E2888388E18983220F2A836D
:1002A000053421F48A8180628A8305C00F3419F4F1
:1002B0008A8180638A83DB01CA0180589B47A14EF3
:1002C000BF4F880F991FAA1FBB1F880F991FAA1F16
:1002D000BB1F880F991FAA1FBB1F440F551F661F06
:1002E000771F440F551F661F771F9A01AB01220F1E
:1002F000331F441F551F220F331F441F551FBC01BE
:10030000CD010E94D501215031093D832C83DF911D
:10031000CF910F910895FC01808180780895FC01B0
:1003200090819923ECF786810895FC01908195FFD7
:10033000FDCF668308950F931F93CF93DF93EB0157
:100340006881662341F08C012196C8010E949501C5
:1003500069916111FACFDF91CF911F910F910895AB
:100360000F931F93CF93DF93CDB7DEB727970FB6C9
:10037000F894DEBF0FBECDBF8C01CB014AE0BE01B9
:100380006F5F7F4F0E94F701BE016F5F7F4FC80113
:100390000E949B0127960FB6F894DEBF0FBECDBF1B
:1003A000DF91CF911F910F910895A1E21A2EAA1B00
:1003B000BB1BFD010DC0AA1FBB1FEE1FFF1FA21715
:1003C000B307E407F50720F0A21BB30BE40BF50B12
:1003D000661F771F881F991F1A9469F7609570959B
:1003E000809590959B01AC01BD01CF010895BB277D
:1003F0004A3031F4992322F4BDE2909581959F4FC4
:100400000C940302BB27FB015527AA27880F991FCD
:10041000AA1FA41710F0A41B83955051B9F7A05D33
:10042000AA3308F0A95DA193009779F7B111B193B0
:100430001192CB010C941C02DC01FC01672F71911D
:100440007723E1F7329704C07C916D9370836291BA
:0C045000AE17BF07C8F30895F894FFCF63
:10045C005468697320737472696E672069732073B2
:10046C00746F726564206173206120636F6E7374A6
:10047C00616E7420696E20666C617368206D656DA9
:10048C006F72790D0A005468697320737472696E07
:10049C00672069732073746F72656420696E2053D2
:0E04AC0052414D206D656D6F72790D0A000092
:00000001FF
