S00E0000746163686F322E73726563D5
S113000071C000008EC000008CC000008AC00000D7
S113001088C00000EAC0000084C0000082C0000064
S113002080C000007EC000007CC000007AC00000D8
S113003078C0000076C0000074C0000009C1000050
S113004070C000006EC000006CC000006AC00000F8
S113005068C0000066C0000064C0000062C0000008
S113006060C000005EC000005CC000005AC0000018
S113007058C0000056C0000054C0000052C0000028
S113008050C000004EC000004CC000004AC0000038
S113009048C0000046C0000044C0000042C0000048
S11300A040C000003EC000003CC000003AC0000058
S11300B038C0000036C0000034C0000032C0000068
S11300C030C000002EC000002CC000002AC0000078
S11300D028C0000026C0000024C0000022C0000088
S11300E020C0000011241FBECFEFD1E2DEBFCDBF80
S11300F000E00CBF12E0A0E0B2E0E2E9FAE000E0C8
S11301000BBF02C007900D92A831B107D9F722E0C6
S1130110A8E1B2E001C01D92AA33B207E1F702D010
S1130120B6C46ECF10921B0260E070E082E892E4E5
S113013055D190931902809318020EE428E040E808
S113014055E260E070E080EC90E0A2D1CEE1D2E034
S1130150E0911802F09119020084F185E02D1995BF
S1130160F9D260931E0270931F0280932002909331
S113017021022D9860E072E080EC90E0E2D1E09101
S11301801802F09119020680F781E02D19954B01B0
S11301905C01DBD26B017C0180EC90E0E6D16EE285
S11301A080EC90E0C8D1B601DD0C880B990B00D32C
S11301B09B01AC01C501B401FBD120E030E048EC67
S11301C052E482D3C2D280EC90E0CFD166E072E0F8
S11301D080EC90E0B6D16881798180EC90E0C5D163
S11301E06DE080EC90E0A7D1B3CF1F920F920FB6D1
S11301F00F9211240BB60F922F933F934F935F935B
S11302006F937F938F939F93AF93BF93EF93FF93DA
S1130210E0911802F09119020280F381E02D199502
S113022080911A028F5F80931A02FF91EF91BF9120
S1130230AF919F918F917F916F915F914F913F917A
S11302402F910F900BBE0F900FBE0F901F9018951B
S11302501F920F920FB60F9211240BB60F922F9389
S11302603F934F935F936F937F938F939F93AF933A
S1130270BF93EF93FF9380911C0290911D0201960E
S113028090931D0280931C028432944FB1F4109217
S11302901D0210921C022D9AE0911802F09119028D
S11302A00190F081E02D80911A02199510921A02A2
S11302B080911B028F5F80931B0280911B028D3300
S11302C050F010921B02E0911802F0911902048080
S11302D0F581E02D1995FF91EF91BF91AF919F9119
S11302E08F917F916F915F914F913F912F910F90DB
S11302F00BBE0F900FBE0F901F90189560913202A5
S11303007091330280913402909135024FD2209142
S11303102302309124024091250250912602D4D226
S113032020E030E04AE754E4A8C108958091320205
S113033090913302A0913402B09135020196A11D2F
S1130340B11D8093320290933302A0933402B09390
S1130350350208952091220230E0F901EA5CFD4F54
S11303608083C901019683709078992324F40197BE
S11303708C6F9F6F0196809322020895E6E3F2E06A
S11303808081618170E0680F711D8281680F711D29
S11303908381680F711D80E090E008D220E030E096
S11303A040E85EE391D220912302309124024091EF
S11303B025025091260288D226E636E646E650E427
S11303C083C2089540913202509133026091340205
S11303D07091350280E090E034C3089520912702A3
S11303E0211153C020E030E048E453E446D126E52F
S11303F03EE049E450E468D26093230270932402FF
S1130400809325029093260280E090E015D36F3FFD
S11304102FEF72078207920749F0609332027093BC
S11304203302809334029093350208C01092320252
S11304301092330210923402109235021092B000DE
S113044091E09093B100E0E7F0E0808181608083E7
S113045080EC80936900EB9A7894E8E2F2E02EEB6A
S113046031E0378326832EE731E03187208722EE7F
S113047031E03583248326E931E0338322832AEA79
S113048031E0318320839093270288E292E008953B
S11304900F93CF93DF93EC01DB01CA018C5291409F
S11304A0A109B109853D904CA140B10508F03FC0B8
S11304B025502430E0F580E2888388E18983220F87
S11304C02A83053421F48A8180628A8305C00F342B
S11304D019F48A8180638A83DB01CA0180589B47AF
S11304E0A14EBF4F880F991FAA1FBB1F880F991FCA
S11304F0AA1FBB1F880F991FAA1FBB1F440F551F9C
S1130500661F771F440F551F661F771F9A01AB01A3
S1130510220F331F441F551F220F331F441F551F23
S1130520BC01CD0134D2215031093D832C83DF91AC
S1130530CF910F910895FC01908195FFFDCF6683C3
S113054008950F931F93CF93DF93EB016881662384
S113055039F08C012196C801EEDF69916111FBCF5E
S1130560DF91CF911F910F9108950F931F93CF9314
S1130570DF93CDB7DEB727970FB6F894DEBF0FBE73
S1130580CDBF8C01CB014AE0BE016F5F7F4F21D20A
S1130590BE016F5F7F4FC801D4DF27960FB6F89472
S11305A0DEBF0FBECDBFDF91CF911F910F91089594
S11305B05058BB27AA270ED04DC13ED130F043D1AD
S11305C020F031F49F3F11F41EF433C10EF4E09592
S11305D0E7FB29C1E92F4FD180F3BA1762077307EC
S11305E08407950718F071F49EF567C10EF4E09541
S11305F00B2EBA2FA02D0B01B90190010C01CA01D9
S1130600A0011124FF27591B99F0593F50F4503E83
S113061068F11A16F040A22F232F342F4427585F75
S1130620F3CF469537952795A795F0405395C9F78D
S11306307EF41F16BA0B620B730B840BBAF0915045
S1130640A1F0FF0FBB1F661F771F881FC2F70EC0E4
S1130650BA0F621F731F841F48F4879577956795B7
S1130660B795F7959E3F08F0B3CF9395880F08F0A0
S11306709927EE0F9795879508950CD0EBC0E3D09A
S113068040F0DAD030F021F45F3F19F0CCC05111C2
S113069015C1CFC0F0D098F39923C9F35523B1F312
S11306A0951B550BBB27AA2762177307840738F0DD
S11306B09F5F5F4F220F331F441FAA1FA9F333D03C
S11306C00E2E3AF0E0E830D091505040E695001CF0
S11306D0CAF729D0FE2F27D0660F771F881FBB1FAC
S11306E0261737074807AB07B0E809F0BB0B802D86
S11306F0BF01FF2793585F4F2AF09E3F510568F0D2
S113070092C0DCC05F3FECF3983EDCF386957795AE
S11307106795B795F7959F5FC9F7880F911D9695D3
S1130720879597F90895E1E0660F771F881FBB1F2F
S1130730621773078407BA0720F0621B730B840BDC
S1130740BA0BEE1F88F7E095089504D06894B111B0
S1130750B5C0089598D088F09F5790F0B92F992785
S1130760B751A0F0D1F0660F771F881F991F1AF0B8
S1130770BA95C9F712C0B13081F09FD0B1E00895A5
S11307809CC0672F782F8827B85F39F0B93FCCF326
S1130790869577956795B395D9F73EF490958095AE
S11307A0709561957F4F8F4F9F4F0895E89409C0CE
S11307B097FB3EF490958095709561957F4F8F4F90
S11307C09F4F9923A9F0F92F96E9BB279395F695A6
S11307D0879577956795B795F111F8CFFAF4BB0F24
S11307E011F460FF1BC06F5F7F4F8F4F9F4F16C088
S11307F0882311F096E911C0772321F09EE8872F12
S1130800762F05C0662371F096E8862F70E060E0CD
S11308102AF09A95660F771F881FDAF7880F969546
S1130820879597F9089597F99F6780E870E060E0ED
S113083008959FEF80EC089500240A941616170675
S113084018060906089500240A94121613061406BD
S113085005060895092E0394000C11F4882352F020
S1130860BB0F40F4BF2B11F460FF04C06F5F7F4FD8
S11308708F4F9F4F089557FD9058440F551F59F0BF
S11308805F3F71F04795880F97FB991F61F09F3F79
S113089079F087950895121613061406551FF2CFA2
S11308A04695F1DF08C0161617061806991FF1CFF2
S11308B086957105610508940895E894BB27662719
S11308C07727CB0197F908950BD0C4CFB5DF28F073
S11308D0BADF18F0952309F0A6CFABCF1124EECFE1
S11308E0CADFA0F3959FD1F3950F50E0551F629F87
S11308F0F001729FBB27F00DB11D639FAA27F00D75
S1130900B11DAA1F649F6627B00DA11D661F829F9B
S11309102227B00DA11D621F739FB00DA11D621F80
S1130920839FA00D611D221F749F3327A00D611D9D
S1130930231F849F600D211D822F762F6A2F11247F
S11309409F5750408AF0E1F088234AF0EE0FFF1FD2
S1130950BB1F661F771F881F91505040A9F79E3F09
S1130960510570F060CFAACF5F3FECF3983EDCF303
S1130970869577956795B795F795E7959F5FC1F746
S1130980FE2B880F911D9695879597F90895A1E2FE
S11309901A2EAA1BBB1BFD010DC0AA1FBB1FEE1FF5
S11309A0FF1FA217B307E407F50720F0A21BB30B40
S11309B0E40BF50B661F771F881F991F1A9469F7BC
S11309C060957095809590959B01AC01BD01CF0118
S11309D00895BB274A3031F4992322F4BDE290955F
S11309E081959F4F01C0BB27FB015527AA27880F7C
S11309F0991FAA1FA41710F0A41B83955051B9F78F
S1130A00A05DAA3308F0A95DA193009779F7B1110D
S1130A10B1931192CB0100C0DC01FC01672F7191ED
S1130A207723E1F7329704C07C916D9370836291D0
S1130A30AE17BF07C8F30895A6E1B0E044E050E064
S1130A400AC0242F17D0252F15D000C012D0272F6D
S1130A5011C0DC01CB01FC01F999FECF06C0F2BD47
S1130A60E1BDF89A319600B40D9241505040B8F768
S1130A700895262FF999FECF1FBA92BD81BD20BDDE
S1130A800FB6F894FA9AF99A0FBE01960895F8945D
S1050A90FFCF92
S1130A924B4D483A200020202020204B484D5F54E3
S10B0AA24F54414C3A200000BE
S9030000FC
