S014000047415F746573745F70726F672E7372656352
S113000096C00000B4C00000B2C00000B0C0000040
S1130010AEC00000ACC00000AAC00000A8C0000030
S1130020A6C00000A4C00000A2C00000A0C0000040
S11300309EC000009CC000009AC0000098C0000050
S113004096C0000094C0000092C0000090C0000060
S11300508EC000008CC000008AC0000088C0000070
S113006086C0000084C0000082C0000080C0000080
S11300707EC000007CC000007AC0000078C0000090
S113008076C0000074C0000072C0000070C00000A0
S11300906EC000006CC000006AC0000068C00000B0
S11300A066C0000064C0000062C0000060C00000C0
S11300B05EC000005CC000005AC0000058C00000D0
S11300C056C0000054C0000052C0000050C00000E0
S11300D04EC000004CC000004AC0000048C00000F0
S11300E046C000002D0332033B03400349034E0383
S11300F057035C0365036A03730378038103860370
S1130100084AD73B3BCE016E84BCBFFDC12F3D6C7A
S113011074319ABD56833DDA3D00C77F11BED9E4E0
S1130120BB4C3E916BAAAABE000000803F00112484
S11301301FBECFEFD1E2DEBFCDBF00E00CBF12E0A7
S1130140A0E0B2E0E6E4F2E100E00BBF02C00790F9
S11301500D92AA34B107D9F722E0AAE4B2E001C0B3
S11301601D92AE39B207E1F76DD40C94210948CF42
S113017061382AE1720726E08207910508F04CC035
S1130180E4E6F0E020812F772083ECEBF0E020819F
S11301902460208340934C02442319F02081216081
S11301A0208360382AE1720726E082079105D9F09E
S11301B0653126E1720725E082079105B8F46838B5
S11301C023E1720781059105A0F4603D27E07207E1
S11301D08105910588F4683E73408105910578F0A6
S11301E086EE93E00EC083E090E00BC084E090E0E4
S11301F008C08EE891E005C08EEC97E002C081E073
S113020090E0E9EBF0E020812E7F208320812D7F98
S113021020838093B800089585E490E008950895BC
S1130220ECEBF0E010828081846A808380914C0240
S1130230811103C080818823ECF7089584E98093B9
S1130240BC000895611104C0880F8093BB0006C0F0
S1130250613021F4880F81608093BB00ECEBF0E007
S11302608081806880838081846A808380914C024D
S1130270811103C080818823ECF708958093BB002B
S113028084E88093BC0080914C02811105C0ECEBA2
S1130290F0E080818823ECF70895811104C084EC98
S11302A08093BC0003C084E88093BC0080914C021E
S11302B0811108C0ECEBF0E080818823ECF7809199
S11302C0BB00089580E0089580934A0208958091C8
S11302D04A0208958091B900887F089580914B0265
S11302E081112DC0EDE4F2E088EB90E091838083EE
S11302F08FE091E09383828380E191E0958384830E
S11303008EE191E09783868382E291E091878087F2
S11303108EE391E0938782878DE491E095878487CB
S113032084E691E09787868787E691E0918B808BBE
S11303308AE691E0938B828B81E080934B028DE47B
S113034092E008950F93CF93DF93EC01DB01CA0190
S11303508C529140A109B109853D904CA140B10551
S113036008F03FC025502430E0F580E2888388E11E
S11303708983220F2A83053421F48A8180628A8347
S113038005C00F3419F48A8180638A83DB01CA01B2
S113039080589B47A14EBF4F880F991FAA1FBB1FB0
S11303A0880F991FAA1FBB1F880F991FAA1FBB1F65
S11303B0440F551F661F771F440F551F661F771F75
S11303C09A01AB01220F331F441F551F220F331F05
S11303D0441F551FBC01CD01D7D6215031093D839F
S11303E02C83DF91CF910F910895FC01908195FFAB
S11303F0FDCF668308950F931F93CF93DF93EB0193
S11304006881662339F08C012196C801EEDF699179
S11304106111FBCFDF91CF911F910F9108950F933D
S11304201F93CF93DF93CDB7DEB727970FB6F8941A
S1130430DEBF0FBECDBF8C01CB014AE0BE016F5FB2
S11304407F4FCCD6BE016F5F7F4FC801D4DF2796A4
S11304500FB6F894DEBF0FBECDBFDF91CF911F91D1
S11304600F910895E0919802F09199020480F5812A
S1130470E02D199581E00895E0919802F091990298
S11304800680F781E02D19950895E0919802F09186
S113049099020084F185E02D60E088E619950895BD
S11304A0E0919802F09199020084F185E02D61E0D9
S11304B088E61995089580930002E0919802F091DE
S11304C099020284F385E02D19950895E09198022C
S11304D0F09199020284F385E02D19950895C2DF05
S11304E0D4DF8BE6E8DF80E0F1DFC6CF0895843007
S11304F008F04AC080936902B5DFC7DF8CE1DBDF17
S113050080916902880F880F880FE0DFB5DF809142
S11305106902813099F028F08230E9F0833041F1AA
S1130520089580E090E0A0E8B6E48093650290939B
S11305306602A0936702B0936802089580E090E099
S1130540A0E0B6E48093650290936602A0936702EC
S1130550B0936802089580E090E0A0E8B5E4809349
S1130560650290936602A0936702B09368020895AF
S113057080E090E0A0E0B5E4809365029093660289
S1130580A0936702B09368020895843008F04AC0CB
S113059080936A0267DF79DF8BE18DDF80916A02E5
S11305A0880F880F880F92DF67DF80916A0281309D
S11305B099F028F08230E9F0833041F1089580E029
S11305C090E0A3E0B3E48093610290936202A0936D
S11305D06302B0936402089580E090E0A3E8B2E47B
S11305E08093610290936202A0936302B0936402C9
S11305F0089583E393E3A3E0B2E4809361029093CC
S11306006202A0936302B0936402089583E393E3C8
S1130610A3E8B1E48093610290936202A093630221
S1130620B09364020895E0919802F09199020484D1
S1130630F585E02D1995282FA82FB0E090910002A0
S1130640492F50E0FA01FB97EE30F10508F066C03F
S11306508827EE58FF4F8F4FB9C5EAE8F2E01082C1
S113066021835CC0EAE8F2E040815181A42BB52BE0
S1130670B183A08353C0EAE8F2E0128223834EC020
S1130680EAE8F2E042815381A42BB52BB383A28321
S113069045C0EAE8F2E01482258340C0EAE8F2E0CB
S11306A044815581A42BB52BB583A48337C0EAE8D4
S11306B0F2E01682278332C0EAE8F2E046815781ED
S11306C0A42BB52BB783A68329C0EAE8F2E01086F1
S11306D0218724C0EAE8F2E040855185A42BB52B9C
S11306E0B187A0871BC0EAE8F2E01286238716C010
S11306F0EAE8F2E042855385A42BB52BB387A287A1
S11307000DC0EAE8F2E01486258708C0EAE8F2E0C2
S113071044855585A42BB52BB587A4879F5F9093FB
S11307200002822F0895CF93DF939CDEAEDE8BE32D
S1130730C2DE98DEB5DECDE0D0E004C081E073DF38
S11307409BDE05C080E06FDF2197E1F7F7CFDF91F3
S1130750CF910895CF92DF92EF92FF920F931F9360
S1130760CF93DF93EC0120E030E04AE754E460915A
S11307706502709166028091670290916802F4D2DA
S11307806B017C010AE812E0F80160817181072E97
S1130790000C880B990B83D3A7019601E5D24CD3A7
S11307A0688379838A839B83F80162817381072E2E
S11307B0000C880B990B73D3A7019601D5D23CD3B7
S11307C06C837D838E839F83F80164817581072EFA
S11307D0000C880B990B63D3A7019601C5D22CD3C7
S11307E0688779878A879B87DF91CF911F910F91C3
S11307F0FF90EF90DF90CF900895CF92DF92EF9229
S1130800FF920F931F93CF93DF93EC01C09061028B
S1130810D0906202E0906302F09064020AE812E071
S1130820F80160857185072E000C880B990B37D36E
S1130830A701960199D200D3688379838A839B8325
S1130840F80162857385072E000C880B990B27D35A
S1130850A701960189D2F0D26C837D838E839F8316
S1130860F80164857585072E000C880B990B17D346
S1130870A701960179D2E0D2688779878A879B8716
S1130880DF91CF911F910F91FF90EF90DF90CF9068
S113089008954F925F926F927F928F929F92AF9240
S11308A0BF92CF92DF92EF92FF920F931F93CF9359
S11308B0DF9300D01F92CDB7DEB78C014090650264
S11308C050906602609067027090680260918E0298
S11308D070918F02072E000C880B990BE0D2A301B4
S11308E0920142D26B017C0160918C0270918D0265
S11308F0072E000C880B990BD2D2A301920134D29B
S11309004B015C01A7019601DCD121EE3EE245E6F4
S113091052E47DD391D2F80171836083A5019401DF
S1130920C501B40174D369837A838B839C83A50145
S11309309401C501B4016BD34B015C01A70196017D
S1130940C701B60164D39B01AC01C501B40146D112
S1130950C5D36B017C01EAE8F2E060817181072E66
S1130960000C880B990B9BD29058A3019201FCD1E7
S1130970A7019601A6D121EE3EE245E652E447D313
S11309805BD2F801738362830F900F900F900F90E6
S1130990DF91CF911F910F91FF90EF90DF90CF9057
S11309A0BF90AF909F908F907F906F905F904F908B
S11309B008959C0190916B02911141C0309399026A
S11309C020939802ECE6F2E082E392E09183808344
S11309D08CE392E09383828385E492E0958384831D
S11309E080E592E0978386838BE592E09187808708
S11309F086E692E09387828783E193E095878487F4
S1130A0089E494E0978786878AEA93E0918B808BC8
S1130A108DEF93E0938B828B83E993E0958B848BAA
S1130A2085EC92E0978B868B87E792E0918F808F9D
S1130A308FE692E0938F828F81E080936B028CE645
S1130A4092E00895CF93DF93CDB7DEB76C970FB6DE
S1130A50F894DEBF0FBECDBF2FEF83ED90E321509E
S1130A6080409040E1F700C000002FEF83ED90E359
S1130A70215080409040E1F700C0000000E028E0F1
S1130A8040E855E260E070E080EC90E05BDC61E01F
S1130A9072E080EC90E0AFDC60E07DE780EC90E019
S1130AA0BEDC65E072E080EC90E0A5DC67E072E01B
S1130AB080EC90E0A0DC12DC90939D0280939C0279
S1130AC078DF90939B0280939A026AE172E080EC53
S1130AD090E091DCE0919C02F0919D020190F08104
S1130AE0E02D40E060E177E280E090E01995BC0100
S1130AF080EC90E094DC65E072E080EC90E07BDCDC
S1130B00E0919A02F0919B02028CF38DE02D1995ED
S1130B10E0919A02F0919B02008CF18DE02D83E02C
S1130B201995E0919A02F0919B020688F789E02DCD
S1130B3083E019952FEF84E39CE02150804090409E
S1130B40E1F700C00000E0919A02F0919B02048852
S1130B50F589E02D1995E0919A02F0919B020288A3
S1130B60F389E02DCE010D961995E0919A02F0914A
S1130B709B020088F189E02DCE0101961995E09140
S1130B809A02F0919B020684F785E02DCE014996E6
S1130B90199565E272E080EC90E02DDC6D857E8530
S1130BA080EC90E03CDC6EE272E080EC90E023DCD0
S1130BB069897A8980EC90E032DC68E372E080EC49
S1130BC090E019DC6D897E8980EC90E028DC62E499
S1130BD072E080EC90E00FDCADCF5058BB27AA2721
S1130BE00ED0D4C1C5D130F0CAD120F031F49F3F2A
S1130BF011F41EF495C10EF4E095E7FB8BC1E92FC7
S1130C00D6D180F3BA17620773078407950718F0E3
S1130C1071F49EF5EEC10EF4E0950B2EBA2FA02DC3
S1130C200B01B90190010C01CA01A0011124FF2795
S1130C30591B99F0593F50F4503E68F11A16F04090
S1130C40A22F232F342F4427585FF3CF469537958F
S1130C502795A795F0405395C9F77EF41F16BA0B54
S1130C60620B730B840BBAF09150A1F0FF0FBB1F02
S1130C70661F771F881FC2F70EC0BA0F621F731F4B
S1130C80841F48F4879577956795B795F7959E3FA8
S1130C9008F0B3CF9395880F08F09927EE0F979536
S1130CA08795089565D158F080E891E009F49EEFA6
S1130CB066D128F040E851E059F45EEF09C030C134
S1130CC098C1E92FE07873D168F3092E052AC1F39E
S1130CD0261737074807590738F00E2E07F8E0257E
S1130CE069F0E025E0640AC0EF6307F8009407FAAE
S1130CF0DB01B9019D01DC01CA01AD01EF9343D0D1
S1130D0045D10AD05F91552331F02BED3FE049E402
S1130D1050FD49EC63CF0895DF93DD27B92FBF77EA
S1130D2040E85FE31616170648075B0710F4D92F4F
S1130D3067D19F938F937F936F930ED2E0E0F1E09E
S1130D40F2D024D12F913F914F915F916CD1DD234B
S1130D5049F09058A2EA2AED3FE049EC5FE3D078ED
S1130D605D274DDFDF9112C10CD010C108D140F0D6
S1130D70FFD030F021F45F3F19F0CCC051113AC1DB
S1130D80CFC015D198F39923C9F35523B1F3951B1B
S1130D90550BBB27AA2762177307840738F09F5F98
S1130DA05F4F220F331F441FAA1FA9F333D00E2E07
S1130DB03AF0E0E830D091505040E695001CCAF774
S1130DC029D0FE2F27D0660F771F881FBB1F261739
S1130DD037074807AB07B0E809F0BB0B802DBF010C
S1130DE0FF2793585F4F2AF09E3F510568F092C049
S1130DF001C15F3FECF3983EDCF3869577956795E8
S1130E00B795F7959F5FC9F7880F911D96958795BC
S1130E1097F90895E1E0660F771F881FBB1F6217DB
S1130E2073078407BA0720F0621B730B840BBA0B99
S1130E30EE1F88F7E095089504D06894B111DAC0E4
S1130E400895BDD088F09F5790F0B92F9927B751D6
S1130E50A0F0D1F0660F771F881F991F1AF0BA957A
S1130E60C9F712C0B13081F0C4D0B1E00895C1C057
S1130E70672F782F8827B85F39F0B93FCCF3869570
S1130E8077956795B395D9F73EF4909580957095CD
S1130E9061957F4F8F4F9F4F0895E89409C097FB4A
S1130EA03EF490958095709561957F4F8F4F9F4F3D
S1130EB09923A9F0F92F96E9BB279395F695879581
S1130EC077956795B795F111F8CFFAF4BB0F11F444
S1130ED060FF1BC06F5F7F4F8F4F9F4F16C08823EB
S1130EE011F096E911C0772321F09EE8872F762F21
S1130EF005C0662371F096E8862F70E060E02AF062
S1130F009A95660F771F881FDAF7880F969587954D
S1130F1097F9089597F99F6780E870E060E0089575
S1130F209FEF80EC0895DF93CF931F930F93FF926D
S1130F30EF92DF927B018C01689405C0DA2EEF01F9
S1130F4072D0FE01E894A591259135914591559172
S1130F50AEF3EF0154DEFE019701A801DA9479F7AC
S1130F60DF90EF90FF900F911F91CF91DF91089543
S1130F7000240A9416161706180609060895002474
S1130F800A9412161306140605060895092E0394EE
S1130F90000C11F4882352F0BB0F40F4BF2B11F462
S1130FA060FF04C06F5F7F4F8F4F9F4F089557FDC1
S1130FB09058440F551F59F05F3F71F04795880FC3
S1130FC097FB991F61F09F3F79F08795089512165A
S1130FD013061406551FF2CF4695F1DF08C0161606
S1130FE017061806991FF1CF8695710561050894B7
S1130FF00895E894BB2766277727CB0197F90895CE
S11310009B01AC0160E070E080E89FE3ADCE0BD0C3
S1131010BDCFAEDF28F0B3DF18F0952309F07ACF07
S11310207FCF1124E7CFC3DFA0F3959FD1F3950FB2
S113103050E0551F629FF001729FBB27F00DB11D58
S1131040639FAA27F00DB11DAA1F649F6627B00DE8
S1131050A11D661F829F2227B00DA11D621F739FD1
S1131060B00DA11D621F839FA00D611D221F749FDF
S11310703327A00D611D231F849F600D211D822F26
S1131080762F6A2F11249F5750408AF0E1F088236D
S11310904AF0EE0FFF1FBB1F661F771F881F91507A
S11310A05040A9F79E3F510570F034CFA3CF5F3F66
S11310B0ECF3983EDCF3869577956795B795F795AD
S11310C0E7959F5FC1F7FE2B880F911D9695879535
S11310D097F9089511F40EF423CF41C070DFD0F3D3
S11310E09923D9F3CEF39F57550B87FF46D000249D
S11310F0A0E640EA900180585695979528F4805CC4
S1131100660F771F881F20F026173707480730F42B
S1131110621B730B840B202931294A2BA695179443
S11311200794202531254A2758F7660F771F881F13
S113113020F026173707480730F4620B730B840B33
S1131140200D311D411DA09581F7B901842F9158BF
S1131150880F9695879508959B01AC0158CF9F3FC2
S113116031F0915020F4879577956795B795880F5E
S1131170911D9695879597F9089591505040660F63
S1131180771F881FD2F70895A1E21A2EAA1BBB1B52
S1131190FD010DC0AA1FBB1FEE1FFF1FA217B3073F
S11311A0E407F50720F0A21BB30BE40BF50B661F55
S11311B0771F881F991F1A9469F760957095809519
S11311C090959B01AC01BD01CF010895EE0FFF1F67
S11311D0881F8BBF0790F691E02D1994BB274A30E6
S11311E031F4992322F4BDE2909581959F4F01C07B
S11311F0BB27FB015527AA27880F991FAA1FA417ED
S113120010F0A41B83955051B9F7A05DAA3308F0E0
S1131210A95DA193009779F7B111B1931192CB0114
S113122000C0DC01FC01672F71917723E1F732974D
S113123004C07C916D9370836291AE17BF07C8F3AD
S10912400895F894FFCFAD
S1131246010A200A200A006372656174696E6720C8
S11312566F626A65637473200A00696E6974206933
S113126632633A20004759524F20583A20006465A9
S1131276672F7320593A20006465672F73205A3A02
S10D128620006465672F73200A003E
S9030000FC
