:1000000096C00000B4C00000B2C00000B0C0000044
:10001000AEC00000ACC00000AAC00000A8C0000034
:10002000A6C00000A4C00000A2C00000A0C0000044
:100030009EC000009CC000009AC0000098C0000054
:1000400096C0000094C0000092C0000090C0000064
:100050008EC000008CC000008AC0000088C0000074
:1000600086C0000084C0000082C0000080C0000084
:100070007EC000007CC000007AC0000078C0000094
:1000800076C0000074C0000072C0000070C00000A4
:100090006EC000006CC000006AC0000068C00000B4
:1000A00066C0000064C0000062C0000060C00000C4
:1000B0005EC000005CC000005AC0000058C00000D4
:1000C00056C0000054C0000052C0000050C00000E4
:1000D0004EC000004CC000004AC0000048C00000F4
:1000E00046C00000E904EE04F704FC0405050A0517
:1000F00013051805210526052F0534053D05420584
:10010000084AD73B3BCE016E84BCBFFDC12F3D6C7E
:1001100074319ABD56833DDA3D00C77F11BED9E4E4
:10012000BB4C3E916BAAAABE000000803F00112488
:100130001FBECFEFD1E2DEBFCDBF00E00CBF12E0AB
:10014000A0E0B2E0E6E2F6E100E00BBF02C00790FB
:100150000D92A436B107D9F722E0A4E6B2E001C0BF
:100160001D92A23BB207E1F71ED60C94110B48CFAB
:1001700061382AE1720726E082079105B8F5E4E6C6
:10018000F0E020812F772083ECEBF0E020812460E9
:10019000208340936602442319F02081216020834C
:1001A0000E943D0920E030E040E051E40E94F70960
:1001B0009B01AC0160E074E284E79BE4C5D720E0DA
:1001C00030E040E050E4F9D60E941109662389F03E
:1001D000E9EBF0E080818E7F808380818D7F80835A
:1001E000E8EBF0E06083808190E0089583E690E0A2
:1001F000089580E090E008950895ECEBF0E010821F
:100200008081846A808380916602811103C080812D
:100210008823ECF7089584E98093BC000895611168
:1002200004C0880F8093BB0006C0613021F4880FA2
:1002300081608093BB00ECEBF0E08081806880837C
:100240008081846A808380916602811103C08081ED
:100250008823ECF708958093BB0084E88093BC006A
:1002600080916602811105C0ECEBF0E0808188236B
:10027000ECF70895811104C084EC8093BC0003C0A6
:1002800084E88093BC0080916602811108C0ECEB89
:10029000F0E080818823ECF78091BB00089580E036
:1002A0000895809364020895809164020895809176
:1002B000B900887F08958091650281112DC0E7E61D
:1002C000F2E088EB90E0918380838CEF90E0938361
:1002D00082838DEF90E0958384838BE091E0978318
:1002E00086838FE091E0918780878BE291E093870E
:1002F00082878AE391E09587848781E591E09787FB
:10030000868784E591E0918B808B87E591E0938BE4
:10031000828B81E08093650287E692E00895909356
:10032000820280938102DC01ED91FC9140E060E16A
:1003300077E280E090E0199508958F929F92AF92B6
:10034000BF92CF92DF92EF92FF920F931F93CF93C2
:10035000DF93EC016B015A014901E0918102F091B8
:1003600082020480F581E02D1995E0918102F091DF
:1003700082020084F185E02D60E088E61995E09125
:100380008102F09182020284F385E02D80E01995CC
:10039000E0918102F09182020680F781E02D1995AB
:1003A000E0918102F09182020480F581E02D19959F
:1003B000E0918102F09182020084F185E02D61E0FC
:1003C00088E61995E0918102F09182020484F58516
:1003D000E02D80E019958F77982F92959F70292FA7
:1003E000220F920F990F891BF7018083E091810200
:1003F000F09182020484F585E02D80E01995982F14
:1004000092959F70292F220F920F990F891BF80147
:100410008083E0918102F09182020484F585E02DD1
:1004200080E01995982F92959F70292F220F920F97
:10043000990F891BF4018083E0918102F09182027F
:100440000484F585E02D80E01995E0918102F0911A
:1004500082020484F585E02D80E01995982F92950D
:100460009F70292F220F920F990F891BF50180830E
:10047000E0918102F09182020484F585E02D80E014
:100480001995982F92959F70292F220F920F990FEF
:10049000891BF6018083E0918102F091820204843D
:1004A000F585E02D81E01995982F92959F70292F61
:1004B000220F920F990F891B8883E0918102F0919E
:1004C00082020680F781E02D1995DF91CF911F916F
:1004D0000F91FF90EF90DF90CF90BF90AF909F90E3
:1004E0008F900895CF92DF92EF92FF920F931F9318
:1004F000CF93DF939BE39C1508F4D2C09E1508F4BC
:10050000CFC0083108F0CCC09FEF940F9F3108F0A6
:10051000C7C09FEF920F973008F0C2C09FEF960FB1
:100520009C3008F0BDC0843608F0BAC0D22FC42F6A
:10053000162FF82EE0918102F09182020480F5815D
:10054000E02D1995E0918102F09182020084F185FD
:10055000E02D60E088E61995E0918102F091820239
:100560000284F385E02D80E019950F2EFDECDF2E3F
:10057000F02DCD9C812D1124869586958695982FFA
:10058000990F890F880FE0918102F0918202028415
:10059000F385E02D8C0D1995ED9C812D1124869508
:1005A00086958695982F990F890F880FE091810283
:1005B000F09182020284F385E02D8E0D19950D9D38
:1005C000812D1124869586958695982F990F890FF0
:1005D000880FE0918102F09182020284F385E02D80
:1005E000800F1995DD9D812D112486958695869520
:1005F000982F990F890F880FE0918102F091820264
:100600000284F385E02D8D0F1995CD9D812D112448
:10061000869586958695982F990F890F880FE0917A
:100620008102F09182020284F385E02D8C0F1995EE
:100630001D9D812D1124869586958695982F990F5D
:10064000890F880FE0918102F09182020284F38584
:10065000E02D810F1995FD9CD12C1124D694D694B0
:10066000D6948D2D880FD80E8D2D880FE0918102A4
:10067000F09182020284F385E02D8F0D1995E091AF
:100680008102F09182020284F385E02D80E01995C9
:10069000E0918102F09182020680F781E02D1995A8
:1006A000DF91CF911F910F91FF90EF90DF90CF904E
:1006B0000895EBE7F2E08FE891E09183808382E791
:1006C00092E0938382838DE991E095838483CF01C7
:1006D00008950F93CF93DF93EC01DB01CA018C5295
:1006E0009140A109B109853D904CA140B10508F0A8
:1006F0003FC025502430E0F580E2888388E189837B
:10070000220F2A83053421F48A8180628A8305C0FE
:100710000F3419F48A8180638A83DB01CA0180580F
:100720009B47A14EBF4F880F991FAA1FBB1F880F61
:10073000991FAA1FBB1F880F991FAA1FBB1F440F19
:10074000551F661F771F440F551F661F771F9A019D
:10075000AB01220F331F441F551F220F331F441FAD
:10076000551FBC01CD0100D7215031093D832C8399
:10077000DF91CF910F910895FC01908195FFFDCFFE
:10078000668308950F931F93CF93DF93EB016881E6
:10079000662339F08C012196C801EEDF6991611161
:1007A000FBCFDF91CF911F910F9108950F931F936E
:1007B000CF93DF93CDB7DEB727970FB6F894DEBFA0
:1007C0000FBECDBF8C01CB014AE0BE016F5F7F4FF2
:1007D000F5D6BE016F5F7F4FC801D4DF27960FB6F5
:1007E000F894DEBF0FBECDBFDF91CF911F910F9167
:1007F0000895E0919C02F0919D020480F581E02D26
:10080000199581E00895E0919C02F0919D02068087
:10081000F781E02D19950895E0919C02F0919D02D9
:100820000084F185E02D60E088E6199508958093B5
:100830000002E0919C02F0919D020284F385E02D7C
:1008400019950895E0919C02F0919D020284F38530
:10085000E02D19950895843008F04AC080938B02EA
:10086000C8DFDADF8CE1E3DF80918B02880F880F2D
:10087000880FE8DFC8DF80918B02813099F028F083
:100880008230E9F0833041F1089580E090E0A0E803
:10089000B6E48093870290938802A0938902B09374
:1008A0008A02089580E090E0A0E0B6E48093870299
:1008B00090938802A0938902B0938A02089580E001
:1008C00090E0A0E8B5E48093870290938802A0931B
:1008D0008902B0938A02089580E090E0A0E0B5E438
:1008E0008093870290938802A0938902B0938A0232
:1008F0000895843008F04AC080938C027ADF8CDF40
:100900008BE195DF80918C02880F880F880F9ADF2A
:100910007ADF80918C02813099F028F08230E9F002
:10092000833041F1089580E090E0A3E0B3E4809348
:10093000830290938402A0938502B0938602089567
:1009400080E090E0A3E8B2E4809383029093840275
:10095000A0938502B0938602089583E393E3A3E016
:10096000B2E48093830290938402A0938502B093B3
:100970008602089583E393E3A3E8B1E480938302BE
:1009800090938402A0938502B0938602089531DF8C
:1009900043DF8BE64CDF80E055DF35CF0895E091F3
:1009A0009C02F0919D020484F585E02D1995282F75
:1009B000A82FB0E090910002492F50E0FA01FB9778
:1009C000EE30F10508F066C08827EE58FF4F8F4FD4
:1009D000EDC5EDE8F2E0108221835CC0EDE8F2E0C5
:1009E00040815181A42BB52BB183A08353C0EDE886
:1009F000F2E0128223834EC0EDE8F2E0428153819F
:100A0000A42BB52BB383A28345C0EDE8F2E014829A
:100A1000258340C0EDE8F2E044815581A42BB52B3D
:100A2000B583A48337C0EDE8F2E01682278332C095
:100A3000EDE8F2E046815781A42BB52BB783A6835E
:100A400029C0EDE8F2E01086218724C0EDE8F2E04D
:100A500040855185A42BB52BB187A0871BC0EDE83D
:100A6000F2E01286238716C0EDE8F2E04285538556
:100A7000A42BB52BB387A2870DC0EDE8F2E0148656
:100A8000258708C0EDE8F2E044855585A42BB52BF9
:100A9000B587A4879F5F90930002822F0895CF931C
:100AA000DF93A7DEB9DE8BE3C2DEA3DEE0919C021A
:100AB000F0919D020084F185E02D61E088E61995B2
:100AC000CDE0D0E004C081E06ADF9DDE05C080E0BB
:100AD00066DF2197E1F7F7CFDF91CF910895CF92AD
:100AE000DF92EF92FF920F931F93CF93DF93EC016E
:100AF000C0908702D0908802E0908902F0908A022C
:100B00000DE812E0F80160817181072E000C880B5E
:100B1000990BB5D3A701960117D320E030E04AE73F
:100B200054E465D479D3688379838A839B83F801FD
:100B300062817381072E000C880B990BA0D3A7014B
:100B4000960102D320E030E04AE754E450D464D365
:100B50006C837D838E839F83F80164817581072E6A
:100B6000000C880B990B8BD3A7019601EDD220E0E6
:100B700030E04AE754E43BD44FD3688779878A87CB
:100B80009B87DF91CF911F910F91FF90EF90DF90A6
:100B9000CF900895CF92DF92EF92FF920F931F9321
:100BA000CF93DF93EC01C0908302D0908402E09059
:100BB0008502F09086020DE812E0F80160857185EB
:100BC000072E000C880B990B5AD3A7019601BCD2B3
:100BD00023D3688379838A839B83F8016285738535
:100BE000072E000C880B990B4AD3A7019601ACD2B3
:100BF00013D36C837D838E839F83F8016485758511
:100C0000072E000C880B990B3AD3A70196019CD2B2
:100C100003D3688779878A879B87DF91CF911F915C
:100C20000F91FF90EF90DF90CF9008954F925F92D9
:100C30006F927F928F929F92AF92BF92CF92DF92EC
:100C4000EF92FF920F931F93CF93DF9300D01F92E9
:100C5000CDB7DEB78C01409087025090880260903B
:100C6000890270908A026091910270919202072E1F
:100C7000000C880B990B03D3A301920165D26B0181
:100C80007C0160918F0270919002072E000C880BFE
:100C9000990BF5D2A301920157D24B015C01A70138
:100CA0009601FFD121EE3EE245E652E4A0D3B4D254
:100CB000F80171836083A5019401C501B40197D344
:100CC00069837A838B839C83A5019401C501B40158
:100CD0008ED34B015C01A7019601C701B60187D3F2
:100CE0009B01AC01C501B40169D1E8D36B017C0162
:100CF000EDE8F2E060817181072E000C880B990B02
:100D0000BED29058A30192011FD2A7019601C9D16A
:100D100021EE3EE245E652E46AD37ED2F8017383C7
:100D200062830F900F900F900F90DF91CF911F91E2
:100D30000F91FF90EF90DF90CF90BF90AF909F907A
:100D40008F907F906F905F904F9008959C0190914D
:100D50009B02911125C030939D0220939C02EEE9E5
:100D6000F2E087EC94E09587848789E794E09187A7
:100D700080878BE294E09387828786E196E0918377
:100D800080838FE695E0938382838AEC95E0958358
:100D900084838FE495E09783868381E080939B0230
:100DA0008EE992E00895CF93DF93CDB7DEB76C97CD
:100DB0000FB6F894DEBF0FBECDBF2FEF83ED90E3EB
:100DC000215080409040E1F700C000002FEF83EDFC
:100DD00090E3215080409040E1F700C0000000E027
:100DE00028E040E855E260E070E080EC90E071DCE3
:100DF00061E072E080EC90E0C5DC60E07DE780ECD3
:100E000090E0D4DC65E072E080EC90E0BBDC67E071
:100E100072E080EC90E0B6DC4EDA9093B102809301
:100E2000B00294DF9093AF028093AE0242DC9093C5
:100E3000AD028093AC026AE172E080EC90E0A2DC4B
:100E4000E091B002F091B1020190F081E02D40E01C
:100E500060EA76E881E090E01995BC0180EC90E0D2
:100E6000A5DC65E072E080EC90E08CDCE091AC0207
:100E7000F091AD020190F081E02D8091B00290914F
:100E8000B1021995E091AC02F091AD020280F381BC
:100E9000E02D0F2EF3E2CF2EF02D0F2EFBE3EF2EE1
:100EA000F02D07E124E04FE16CE084E11995E09139
:100EB000AE02F091AF020484F585E02D1995E09122
:100EC000AE02F091AF020084F185E02D82E0199529
:100ED000E091AE02F091AF020284F385E02D81E053
:100EE00019952FEF89E698E1215080409040E1F775
:100EF00000C00000E091AE02F091AF020680F781E1
:100F0000E02D1995E091AE02F091AF020480F581D9
:100F1000E02DCE0101961995E091AE02F091AF025D
:100F20000280F381E02DCE010D961995E091AE027D
:100F3000F091AF020190F081E02DCE014996199514
:100F400065E272E080EC90E01DDC6D857E8580ECD2
:100F500090E02CDC6FE272E080EC90E013DC6989B9
:100F60007A8980EC90E022DC66E372E080EC90E02D
:100F700009DC6D897E8980EC90E018DC6DE372E01D
:100F800080EC90E0FFDB62E472E080EC90E0FADB62
:100F9000698D7A8D80EC90E009DC62E572E080EC8E
:100FA00090E0F0DB6B8D7C8D80EC90E0FFDB6AE500
:100FB00072E080EC90E0E6DB94CF5058BB27AA2784
:100FC0000ED0D4C1C5D130F0CAD120F031F49F3F4A
:100FD00011F41EF495C10EF4E095E7FB8BC1E92FE7
:100FE000D6D180F3BA17620773078407950718F004
:100FF00071F49EF5EEC10EF4E0950B2EBA2FA02DE4
:101000000B01B90190010C01CA01A0011124FF27B5
:10101000591B99F0593F50F4503E68F11A16F040B0
:10102000A22F232F342F4427585FF3CF46953795AF
:101030002795A795F0405395C9F77EF41F16BA0B74
:10104000620B730B840BBAF09150A1F0FF0FBB1F22
:10105000661F771F881FC2F70EC0BA0F621F731F6B
:10106000841F48F4879577956795B795F7959E3FC8
:1010700008F0B3CF9395880F08F09927EE0F979556
:101080008795089565D158F080E891E009F49EEFC6
:1010900066D128F040E851E059F45EEF09C030C154
:1010A00098C1E92FE07873D168F3092E052AC1F3BE
:1010B000261737074807590738F00E2E07F8E0259E
:1010C00069F0E025E0640AC0EF6307F8009407FACE
:1010D000DB01B9019D01DC01CA01AD01EF9343D0F1
:1010E00045D10AD05F91552331F02BED3FE049E423
:1010F00050FD49EC63CF0895DF93DD27B92FBF770B
:1011000040E85FE31616170648075B0710F4D92F6F
:1011100067D19F938F937F936F930ED2E0E0F1E0BE
:10112000F2D024D12F913F914F915F916CD1DD236B
:1011300049F09058A2EA2AED3FE049EC5FE3D0780D
:101140005D274DDFDF9112C10CD010C108D140F0F6
:10115000FFD030F021F45F3F19F0CCC051113AC1FB
:10116000CFC015D198F39923C9F35523B1F3951B3B
:10117000550BBB27AA2762177307840738F09F5FB8
:101180005F4F220F331F441FAA1FA9F333D00E2E27
:101190003AF0E0E830D091505040E695001CCAF794
:1011A00029D0FE2F27D0660F771F881FBB1F261759
:1011B00037074807AB07B0E809F0BB0B802DBF012C
:1011C000FF2793585F4F2AF09E3F510568F092C069
:1011D00001C15F3FECF3983EDCF386957795679508
:1011E000B795F7959F5FC9F7880F911D96958795DD
:1011F00097F90895E1E0660F771F881FBB1F6217FC
:1012000073078407BA0720F0621B730B840BBA0BB9
:10121000EE1F88F7E095089504D06894B111DAC004
:101220000895BDD088F09F5790F0B92F9927B751F6
:10123000A0F0D1F0660F771F881F991F1AF0BA959A
:10124000C9F712C0B13081F0C4D0B1E00895C1C077
:10125000672F782F8827B85F39F0B93FCCF3869590
:1012600077956795B395D9F73EF4909580957095ED
:1012700061957F4F8F4F9F4F0895E89409C097FB6A
:101280003EF490958095709561957F4F8F4F9F4F5D
:101290009923A9F0F92F96E9BB279395F6958795A1
:1012A00077956795B795F111F8CFFAF4BB0F11F464
:1012B00060FF1BC06F5F7F4F8F4F9F4F16C088230B
:1012C00011F096E911C0772321F09EE8872F762F41
:1012D00005C0662371F096E8862F70E060E02AF082
:1012E0009A95660F771F881FDAF7880F969587956E
:1012F00097F9089597F99F6780E870E060E0089596
:101300009FEF80EC0895DF93CF931F930F93FF928D
:10131000EF92DF927B018C01689405C0DA2EEF0119
:1013200072D0FE01E894A591259135914591559192
:10133000AEF3EF0154DEFE019701A801DA9479F7CC
:10134000DF90EF90FF900F911F91CF91DF91089563
:1013500000240A9416161706180609060895002494
:101360000A9412161306140605060895092E03940E
:10137000000C11F4882352F0BB0F40F4BF2B11F482
:1013800060FF04C06F5F7F4F8F4F9F4F089557FDE1
:101390009058440F551F59F05F3F71F04795880FE3
:1013A00097FB991F61F09F3F79F08795089512167A
:1013B00013061406551FF2CF4695F1DF08C0161626
:1013C00017061806991FF1CF8695710561050894D7
:1013D0000895E894BB2766277727CB0197F90895EE
:1013E0009B01AC0160E070E080E89FE3ADCE0BD0E4
:1013F000BDCFAEDF28F0B3DF18F0952309F07ACF28
:101400007FCF1124E7CFC3DFA0F3959FD1F3950FD2
:1014100050E0551F629FF001729FBB27F00DB11D78
:10142000639FAA27F00DB11DAA1F649F6627B00D08
:10143000A11D661F829F2227B00DA11D621F739FF1
:10144000B00DA11D621F839FA00D611D221F749FFF
:101450003327A00D611D231F849F600D211D822F46
:10146000762F6A2F11249F5750408AF0E1F088238D
:101470004AF0EE0FFF1FBB1F661F771F881F91509A
:101480005040A9F79E3F510570F034CFA3CF5F3F86
:10149000ECF3983EDCF3869577956795B795F795CD
:1014A000E7959F5FC1F7FE2B880F911D9695879555
:1014B00097F9089511F40EF423CF41C070DFD0F3F3
:1014C0009923D9F3CEF39F57550B87FF46D00024BD
:1014D000A0E640EA900180585695979528F4805CE4
:1014E000660F771F881F20F026173707480730F44C
:1014F000621B730B840B202931294A2BA695179464
:101500000794202531254A2758F7660F771F881F33
:1015100020F026173707480730F4620B730B840B53
:10152000200D311D411DA09581F7B901842F9158DF
:10153000880F9695879508959B01AC0158CF9F3FE2
:1015400031F0915020F4879577956795B795880F7E
:10155000911D9695879597F9089591505040660F83
:10156000771F881FD2F70895A1E21A2EAA1BBB1B72
:10157000FD010DC0AA1FBB1FEE1FFF1FA217B3075F
:10158000E407F50720F0A21BB30BE40BF50B661F75
:10159000771F881F991F1A9469F760957095809539
:1015A00090959B01AC01BD01CF010895EE0FFF1F87
:1015B000881F8BBF0790F691E02D1994BB274A3006
:1015C00031F4992322F4BDE2909581959F4F01C09B
:1015D000BB27FB015527AA27880F991FAA1FA4170D
:1015E00010F0A41B83955051B9F7A05DAA3308F001
:1015F000A95DA193009779F7B111B1931192CB0135
:1016000000C0DC01FC01672F71917723E1F732976D
:1016100004C07C916D9370836291AE17BF07C8F3CD
:061620000895F894FFCFCD
:10162600010A200A200A006372656174696E6720E8
:101636006F626A65637473200A00696E6974206953
:1016460032633A2000416363656C20583A20006D8E
:101656004720593A20006D47205A3A20006D47200E
:101666000A00506974636820526F6C6C3A20583ACD
:10167600200064656720593A2000646567200A20C7
:041686000A20000036
:00000001FF
