S014000047415F746573745F70726F672E7372656352
S113000096C00000B3C00000B1C00000AFC0000043
S1130010ADC00000ABC00000A9C00000A7C0000034
S1130020A5C00000A3C00000A1C000009FC0000044
S11300309DC000009BC0000099C0000097C0000054
S113004095C0000093C0000091C000008FC0000064
S11300508DC000008BC0000089C0000087C0000074
S113006085C0000083C0000081C000007FC0000084
S11300707DC000007BC0000079C0000077C0000094
S113008075C0000073C0000071C000006FC00000A4
S11300906DC000006BC0000069C0000067C00000B4
S11300A065C0000063C0000061C000005FC00000C4
S11300B05DC000005BC0000059C0000057C00000D4
S11300C055C0000053C0000051C000004FC00000E4
S11300D04DC000004BC0000049C0000047C00000F4
S11300E045C0000088028D0296029B02A402A90268
S11300F0B202B702C002C502CE02D302DC02E102A0
S1130100084AD73B3BCE016E84BCBFFDC12F3D6C7A
S113011074319ABD56833DDA3D00C77F11BED9E4E0
S1130120BB4C3E916BAAAABE000000803F00112484
S11301301FBECFEFD1E2DEBFCDBF00E00CBF12E0A7
S1130140A0E0B2E0E0E4F1E100E00BBF02C0079000
S11301500D92A23BB107D9F722E0A2EBB2E001C0B5
S11301601D92A13FB207E1F74ED3E8C749CF6138EA
S11301702AE1720726E08207910508F04CC0E4E604
S1130180F0E020812F772083ECEBF0E020812460E5
S113019020834093B402442319F0208121602083FA
S11301A060382AE1720726E082079105D9F06531AB
S11301B026E1720725E082079105B8F4683823E147
S11301C0720781059105A0F4603D27E0720781055F
S11301D0910588F4683E73408105910578F086EEB8
S11301E093E00EC083E090E00BC084E090E008C090
S11301F08EE891E005C08EEC97E002C081E090E0CB
S1130200E9EBF0E020812E7F208320812D7F208365
S11302108093B800089585E490E008950895ECEB88
S1130220F0E010828081846A80838091B40281111D
S113023003C080818823ECF7089584E98093BC008F
S11302400895611104C0880F8093BB0006C061301B
S113025021F4880F81608093BB00ECEBF0E0808197
S1130260806880838081846A80838091B402811154
S113027003C080818823ECF708958093BB0084E851
S11302808093BC008091B402811105C0ECEBF0E0D6
S113029080818823ECF70895811104C084EC809355
S11302A0BC0003C084E88093BC008091B402811137
S11302B008C0ECEBF0E080818823ECF78091BB0070
S11302C0089580E008958093B20208958091B20267
S11302D008958091B900887F08958091B3028111B7
S11302E02DC0E5EBF2E087EB90E0918380838EE014
S11302F091E0938382838FE091E0958384838DE101
S113030091E09783868381E291E0918780878DE3F2
S113031091E0938782878CE491E09587848783E6D4
S113032091E09787868786E691E0918B808B89E6BA
S113033091E0938B828B81E08093B30285EB92E012
S113034008950F93CF93DF93EC01DB01CA018C5224
S11303509140A109B109853D904CA140B10508F037
S11303603FC025502430E0F580E2888388E189830A
S1130370220F2A83053421F48A8180628A8305C08E
S11303800F3419F48A8180638A83DB01CA0180589F
S11303909B47A14EBF4F880F991FAA1FBB1F880FF1
S11303A0991FAA1FBB1F880F991FAA1FBB1F440FA9
S11303B0551F661F771F440F551F661F771F9A012D
S11303C0AB01220F331F441F551F220F331F441F3D
S11303D0551FBC01CD0155D6215031093D832C83D5
S11303E0DF91CF910F910895FC01908195FFFDCF8E
S11303F0668308950F931F93CF93DF93EB01688176
S1130400662339F08C012196C801EEDF69916111F0
S1130410FBCFDF91CF911F910F9108950F931F93FD
S1130420CF93DF93CDB7DEB727970FB6F894DEBF2F
S11304300FBECDBF8C01CB014AE0BE016F5F7F4F81
S11304404AD6BE016F5F7F4FC801D4DF27960FB62F
S1130450F894DEBF0FBECDBFDF91CF911F910F91F6
S11304600895E091EB02F091EC020480F581E02D17
S1130470199581E00895E091EB02F091EC02068079
S1130480F781E02D19950895E091EB02F091EC02CB
S11304900084F185E02D60E088E619950895E091E7
S11304A0EB02F091EC020084F185E02D61E088E636
S11304B01995089580930002E091EB02F091EC020B
S11304C00284F385E02D19950895E091EB02F091F3
S11304D0EC020284F385E02D19950895E091EB0276
S11304E0F091EC020484F585E02D1995282FA82FAE
S11304F0B0E090910002492F50E0FA01FB97EE30F2
S1130500F10508F066C08827EE58FF4F8F4FDBC512
S1130510EDEDF2E0108221835CC0EDEDF2E040816C
S11305205181A42BB52BB183A08353C0EDEDF2E030
S1130530128223834EC0EDEDF2E042815381A42B5D
S1130540B52BB383A28345C0EDEDF2E0148225837D
S113055040C0EDEDF2E044815581A42BB52BB58369
S1130560A48337C0EDEDF2E01682278332C0EDEDAF
S1130570F2E046815781A42BB52BB783A68329C00B
S1130580EDEDF2E01086218724C0EDEDF2E0408528
S11305905185A42BB52BB187A0871BC0EDEDF2E0EC
S11305A01286238716C0EDEDF2E042855385A42B15
S11305B0B52BB387A2870DC0EDEDF2E01486258735
S11305C008C0EDEDF2E044855585A42BB52BB58725
S11305D0A4879F5F90930002822F08950F931F9327
S11305E0CF93DF93EC010DED12E0F801608171818E
S11305F0072E000C880B990BCFD32FE632E143E092
S113060051E42FD396D379836883F801628173818F
S1130610072E000C880B990BBFD32FE632E143E081
S113062051E41FD386D37B836A83F8016481758187
S1130630072E000C880B990BAFD32FE632E143E071
S113064051E40FD376D37D836C83DF91CF911F91D7
S11306500F9108954F925F926F927F928F929F9223
S1130660AF92BF92CF92DF92EF92FF920F931F93BC
S1130670CF93DF9300D01F92CDB7DEB78C0160918A
S1130680DF027091E002072E000C880B990B84D3D3
S113069020E030E040E858E337D46B017C01EDED15
S11306A0F2E060817181072E000C880B990B74D3E2
S11306B04B015C0120E030E040E858E325D42B01F5
S11306C03C016091E1027091E202772314F46150DD
S11306D0704C770F660B770F762F661F072E000C72
S11306E0880B990B59D39B01AC010ED469837A838F
S11306F08B839C83A3019201C301B20105D4298198
S11307003A814B815C8121D266D49B01AC01C70143
S1130710B601A7D27ED221EE3EE245E652E4F4D3FE
S113072021EE3AE744E15FE30FD2F801608371837D
S113073082839383A7019601C701B601E5D329817A
S11307403A814B815C8101D246D46B017C01C501A5
S1130750B401905820E030E040E858E3D5D3A70135
S113076096017FD256D221EE3EE245E652E4CCD346
S113077021EE3AE744E15FE3E8D1F801648375834D
S1130780868397830F900F900F900F90DF91CF91F6
S11307901F910F91FF90EF90DF90CF90BF90AF909B
S11307A09F908F907F906F905F904F90089590935B
S11307B0EC028093EB02E9ECF2E081E392E09183B6
S11307C080838BE392E09383828384E492E0958335
S11307D084838FE492E0978386838AE592E091870D
S11307E0808785E692E0938782878EE692E09587FC
S11307F084878AE293E0978786878EEE92E0918BD6
S1130800808BCF010895CF93DF9300D000D0CDB774
S1130810DEB72FEF43ED80E3215040408040E1F705
S113082000C000009FEFE3EDF0E39150E040F040A2
S1130830E1F700C0000000E028E040E855E260E095
S113084070E080EC90E07DDD61E072E080EC90E0AF
S1130850D1DD60E07DE780EC90E0E0DD65E072E012
S113086080EC90E0C7DD67E072E080EC90E0C2DDF0
S113087034DD9093F0028093EF0299DF9093EE02BF
S11308808093ED026AE172E080EC90E0B3DDE091E8
S1130890EF02F091F0020190F081E02D40E060E180
S11308A077E280E090E01995BC0180EC90E0B6DD41
S11308B065E272E080EC90E09DDDE091ED02F09164
S11308C0EE0280819181FC01199509EB10E0F80199
S11308D06081687F70E080EC90E0A0DD68E372E006
S11308E080EC90E087DDE091ED02F091EE0204806F
S11308F0F581E02D1995F8016081687F70E080EC46
S113090090E08CDD68E472E080EC90E073DDE091CF
S1130910ED02F091EE020084F185E02D8BE619954D
S1130920F8016081687F70E080EC90E077DD67E536
S113093072E080EC90E05EDDE091ED02F091EE0279
S11309400284F385E02D80E01995E091ED02F091A9
S1130950EE020280F381E02D19956AE672E080ECE4
S113096090E048DD65E272E080EC90E043DDE091E8
S1130970ED02F091EE0280819181FC011995F8015C
S11309806081687F70E080EC90E048DD68E372E0AD
S113099080EC90E02FDDE091ED02F091EE02048016
S11309A0F581E02D1995F8016081687F70E080EC95
S11309B090E034DD68E472E080EC90E01BDDE091CF
S11309C0ED02F091EE020084F185E02D8CE11995A1
S11309D0F8016081687F70E080EC90E01FDD67E5DE
S11309E072E080EC90E006DDE091ED02F091EE0221
S11309F00284F385E02D88E01995E091ED02F091F1
S1130A00EE020280F381E02D199568E772E080EC34
S1130A1090E0F0DCFFEF24E34CE0F1502040404054
S1130A20E1F700C00000E091ED02F091EE020190C8
S1130A30F081E02D1995E091ED02F091EE02048031
S1130A40F581E02D1995E091ED02F091EE0200841C
S1130A50F185E02D8BE31995E091ED02F091EE0222
S1130A600190F081E02D1995E091ED02F091EE02F4
S1130A700680F781E02D19950DE010E029C0E09182
S1130A80ED02F091EE020484F585E02D81E01995E4
S1130A90E091ED02F091EE020280F381E02D1995D0
S1130AA0E091ED02F091EE020088F189E02DCE0193
S1130AB00196199565E072E080EC90E09BDC8D81F5
S1130AC09E819C012852314F213B3D41A0F00DC035
S1130AD0E091ED02F091EE020484F585E02D80E0D2
S1130AE0199501501109A1F7CACF67E872E080ECAB
S1130AF090E080DC8FCF9C012854344F213737415C
S1130B0030F06AE972E080EC90E074DC83CF9C0101
S1130B102053384F213A3F4030F062EA72E080ECD3
S1130B2090E068DC77CF805E9C4F8134964030F053
S1130B3068EA72E080EC90E05DDC6CCF6DEA72E014
S1130B4080EC90E057DC66CF5058BB27AA270ED024
S1130B509AC18BD130F090D120F031F49F3F11F441
S1130B601EF45BC10EF4E095E7FB51C1E92F9CD163
S1130B7080F3BA17620773078407950718F071F4B6
S1130B809EF5B4C10EF4E0950B2EBA2FA02D0B01E7
S1130B90B90190010C01CA01A0011124FF27591BBE
S1130BA099F0593F50F4503E68F11A16F040A22FC4
S1130BB0232F342F4427585FF3CF46953795279535
S1130BC0A795F0405395C9F77EF41F16BA0B620B34
S1130BD0730B840BBAF09150A1F0FF0FBB1F661F7B
S1130BE0771F881FC2F70EC0BA0F621F731F841FBE
S1130BF048F4879577956795B795F7959E3F08F0E4
S1130C00B3CF9395880F08F09927EE0F97958795A2
S1130C100895DF93DD27B92FBF7740E85FE3161609
S1130C20170648075B0710F4D92F67D19F938F935A
S1130C307F936F930ED2E0E0F1E0F2D024D12F91B4
S1130C403F914F915F916CD1DD2349F09058A2EA16
S1130C502AED3FE049EC5FE3D0785D2787DFDF9141
S1130C6012C10CD010C108D140F0FFD030F021F4F3
S1130C705F3F19F0CCC051113AC1CFC015D198F3E0
S1130C809923C9F35523B1F3951B550BBB27AA2709
S1130C9062177307840738F09F5F5F4F220F331F7B
S1130CA0441FAA1FA9F333D00E2E3AF0E0E830D047
S1130CB091505040E695001CCAF729D0FE2F27D04A
S1130CC0660F771F881FBB1F261737074807AB0718
S1130CD0B0E809F0BB0B802DBF01FF2793585F4F8D
S1130CE02AF09E3F510568F092C001C15F3FECF3CA
S1130CF0983EDCF3869577956795B795F7959F5F52
S1130D00C9F7880F911D9695879597F90895E1E0A5
S1130D10660F771F881FBB1F621773078407BA0704
S1130D2020F0621B730B840BBA0BEE1F88F7E0955F
S1130D30089504D06894B111DAC00895BDD088F044
S1130D409F5790F0B92F9927B751A0F0D1F0660FB3
S1130D50771F881F991F1AF0BA95C9F712C0B130CE
S1130D6081F0C4D0B1E00895C1C0672F782F8827DF
S1130D70B85F39F0B93FCCF3869577956795B3950D
S1130D80D9F73EF490958095709561957F4F8F4F7C
S1130D909F4F0895E89409C097FB3EF49095809581
S1130DA0709561957F4F8F4F9F4F9923A9F0F92F2D
S1130DB096E9BB279395F695879577956795B795AB
S1130DC0F111F8CFFAF4BB0F11F460FF1BC06F5F91
S1130DD07F4F8F4F9F4F16C0882311F096E911C0A3
S1130DE0772321F09EE8872F762F05C0662371F0C4
S1130DF096E8862F70E060E02AF09A95660F771FD8
S1130E00881FDAF7880F9695879597F9089597F9CB
S1130E109F6780E870E060E008959FEF80EC08959C
S1130E20DF93CF931F930F93FF92EF92DF927B0197
S1130E308C01689405C0DA2EEF0172D0FE01E894AB
S1130E40A5912591359145915591AEF3EF018EDE33
S1130E50FE019701A801DA9479F7DF90EF90FF90F3
S1130E600F911F91CF91DF91089500240A941616D3
S1130E70170618060906089500240A941216130684
S1130E80140605060895092E0394000C11F4882312
S1130E9052F0BB0F40F4BF2B11F460FF04C06F5F2E
S1130EA07F4F8F4F9F4F089557FD9058440F551F04
S1130EB059F05F3F71F04795880F97FB991F61F0D8
S1130EC09F3F79F087950895121613061406551F4F
S1130ED0F2CF4695F1DF08C0161617061806991FBB
S1130EE0F1CF86957105610508940895E894BB27B0
S1130EF066277727CB0197F908959B01AC0160E041
S1130F0070E080E89FE3ADCE0BD0BDCFAEDF28F01C
S1130F10B3DF18F0952309F07ACF7FCF1124E7CF00
S1130F20C3DFA0F3959FD1F3950F50E0551F629F47
S1130F30F001729FBB27F00DB11D639FAA27F00D2E
S1130F40B11DAA1F649F6627B00DA11D661F829F55
S1130F502227B00DA11D621F739FB00DA11D621F3A
S1130F60839FA00D611D221F749F3327A00D611D57
S1130F70231F849F600D211D822F762F6A2F112439
S1130F809F5750408AF0E1F088234AF0EE0FFF1F8C
S1130F90BB1F661F771F881F91505040A9F79E3FC3
S1130FA0510570F034CFA3CF5F3FECF3983EDCF3F0
S1130FB0869577956795B795F795E7959F5FC1F700
S1130FC0FE2B880F911D9695879597F9089511F436
S1130FD00EF423CF41C070DFD0F39923D9F3CEF3BD
S1130FE09F57550B87FF46D00024A0E640EA9001A6
S1130FF080585695979528F4805C660F771F881F54
S113100020F026173707480730F4621B730B840B54
S1131010202931294A2BA695179407942025312598
S11310204A2758F7660F771F881F20F026173707BF
S1131030480730F4620B730B840B200D311D411DE6
S1131040A09581F7B901842F9158880F96958795BB
S113105008959B01AC0158CF9F3F31F0915020F48B
S1131060879577956795B795880F911D9695879580
S113107097F9089591505040660F771F881FD2F753
S11310800895A1E21A2EAA1BBB1BFD010DC0AA1FC5
S1131090BB1FEE1FFF1FA217B307E407F50720F0DD
S11310A0A21BB30BE40BF50B661F771F881F991F58
S11310B01A9469F760957095809590959B01AC01A1
S11310C0BD01CF010895EE0FFF1F881F8BBF07904E
S11310D0F691E02D1994BB274A3031F4992322F478
S11310E0BDE2909581959F4F01C0BB27FB01552719
S11310F0AA27880F991FAA1FA41710F0A41B839571
S11311005051B9F7A05DAA3308F0A95DA1930097E7
S113111079F7B111B1931192CB0100C0DC01FC014C
S1131120672F71917723E1F7329704C07C916D9317
S113113070836291AE17BF07C8F30895F894FFCF88
S1131140010A200A200A006372656174696E6720CF
S11311506F626A65637473200A00696E697420693A
S113116032633A20000A20737461727420747261CD
S11311706E736665723A20000A20656E746572208B
S113118077726974653A20000A2073656C6563742C
S1131190207265673A20000A2061626F75742074BA
S11311A06F2073746172743A20000A20697320728C
S11311B065736574200A20000A2073657420746FB7
S11311C0203467200A2000383D3D3D3D3D3D447EAE
S11311D07E7E207E207E7E202000383D3D3D3D3DAC
S11311E04400383D3D3D4400383D3D4400383D44D5
S10511F00000F9
S9030000FC
