:1000000071C000008EC000008CC000008AC00000DB
:1000100088C0000086C0000084C0000082C00000CC
:1000200080C000007EC000007CC000007AC00000DC
:1000300078C0000076C0000074C0000072C00000EC
:1000400070C000006EC000006CC000006AC00000FC
:1000500068C0000066C0000064C0000062C000000C
:1000600060C000005EC000005CC000005AC000001C
:1000700058C0000056C0000054C0000052C000002C
:1000800050C000004EC000004CC000004AC000003C
:1000900048C0000046C0000044C0000042C000004C
:1000A00040C000003EC000003CC000003AC000005C
:1000B00038C0000036C0000034C0000032C000006C
:1000C00030C000002EC000002CC000002AC000007C
:1000D00028C0000026C0000024C0000022C000008C
:1000E00020C0000011241FBECFEFD1E2DEBFCDBF84
:1000F00000E00CBF12E0A0E0B2E0ECEBF7E000E0C3
:100100000BBF02C007900D92A031B107D9F722E0D2
:10011000A0E1B2E001C01D92A632B207E1F793D18F
:100120004BC36ECF70931102609310028093120242
:100130000895E0911402F09115020480F581E02DFC
:1001400080911202199521E0409110025091110204
:100150008417950708F020E0822F08959C01909164
:100160001302911111C03093150220931402E6E19D
:10017000F2E082E990E09183808389E990E09383C3
:10018000828381E08093130286E192E008950F93C9
:10019000CF93DF93EC01DB01CA018C529140A1099E
:1001A000B109853D904CA140B10508F03FC02550F4
:1001B0002430E0F580E2888388E18983220F2A8356
:1001C000053421F48A8180628A8305C00F3419F4D2
:1001D0008A8180638A83DB01CA0180589B47A14ED4
:1001E000BF4F880F991FAA1FBB1F880F991FAA1FF7
:1001F000BB1F880F991FAA1FBB1F440F551F661FE7
:10020000771F440F551F661F771F9A01AB01220FFE
:10021000331F441F551F220F331F441F551FBC019E
:10022000CD0175D2215031093D832C83DF91CF91CF
:100230000F910895FC01908195FFFDCF668308958D
:100240000F931F93CF93DF93EB016881662339F0FF
:100250008C012196C801EEDF69916111FBCFDF911E
:10026000CF911F910F9108950F931F93CF93DF9319
:10027000CDB7DEB727970FB6F894DEBF0FBECDBF60
:100280008C01CB014AE0BE016F5F7F4F62D2BE019D
:100290006F5F7F4FC801D4DF27960FB6F894DEBF9B
:1002A0000FBECDBFDF91CF911F910F910895E4E66E
:1002B000F0E090819E7F908310927C00EAE7F0E06E
:1002C000108210927B00908197609083908190685B
:1002D000908380931E028130A1F028F08230D1F00B
:1002E000833009F10895ECE7F0E080818F7380831B
:1002F00040931A0250931B0260931C0270931D02DC
:100300000895ECE7F0E080818F77808380818064BE
:1003100080830895ECE7F0E080818F7B808380818B
:10032000806880830895ECE7F0E08081806C8083B2
:100330000895883030F4ECE7F0E09081892B8083D9
:100340000DC08850883050F4EBE7F0E09081986061
:100350009083ECE7F0E09081892B8083EAE7F0E07E
:10036000808180648083808186FDFDCF80917800CC
:1003700020917900237090E0922B0895DADFBC0180
:1003800080E090E0D3D020E030E040E85AE334D180
:1003900020E030E04AE754E42FD19CD020911E02A7
:1003A0002130A9F028F02230E9F0233031F130C0BB
:1003B00080E090E0BBD020911A0230911B02409166
:1003C0001C0250911D0218D185D0CB01089580E008
:1003D00090E0ACD020E030E040EA50E40DD17AD09B
:1003E000CB01089580E090E0A1D02DEC3CEC4CE8EE
:1003F0005FE302D16FD0CB01089580E090E096D00A
:100400002AE037ED43E250E4F7D064D0CB01089501
:1004100080E090E0089580911F02811111C0E0E218
:10042000F2E087E591E09183808389E991E093830D
:1004300082838EEB91E09583848381E080931F0219
:1004400080E292E00895E7DFEC0188DE7C01E8813C
:10045000F98140E050E0BA0182E01995D701ED91B1
:10046000FC9168EC70E080E0199500E028E040E83D
:1004700055E260E070E080EC90E089DE60E072E0E0
:1004800080EC90E0DDDEBFEF21EE84E0B150204053
:100490008040E1F700C000006DE072E080EC90E089
:1004A000CFDED7011296ED91FC9113971995682F25
:1004B00070E080EC90E0D8DE6DE072E080EC90E0DF
:1004C000BFDEEC81FD8180E01995BC0180EC90E0FD
:1004D000CBDED9CF70D088F09F5790F0B92F9927F5
:1004E000B751A0F0D1F0660F771F881F991F1AF03F
:1004F000BA95C9F712C0B13081F077D0B1E0089554
:1005000074C0672F782F8827B85F39F0B93FCCF3D4
:10051000869577956795B395D9F73EF49095809534
:10052000709561957F4F8F4F9F4F0895E89409C054
:1005300097FB3EF490958095709561957F4F8F4F16
:100540009F4F9923A9F0F92F96E9BB279395F6952C
:10055000879577956795B795F111F8CFFAF4BB0FAA
:1005600011F460FF1BC06F5F7F4F8F4F9F4F16C00E
:10057000882311F096E911C0772321F09EE8872F98
:10058000762F05C0662371F096E8862F70E060E054
:100590002AF09A95660F771F881FDAF7880F9695CD
:1005A000879597F9089557FD9058440F551F59F0B6
:1005B0005F3F71F04795880F97FB991F61F09F3F50
:1005C00079F087950895121613061406551FF2CF79
:1005D0004695F1DF08C0161617061806991FF1CFC9
:1005E00086957105610508940895E894BB276627F0
:1005F0007727CB0197F908950BD078C069D028F000
:100600006ED018F0952309F05AC05FC01124EECFC8
:10061000CADFA0F3959FD1F3950F50E0551F629F5D
:10062000F001729FBB27F00DB11D639FAA27F00D4B
:10063000B11DAA1F649F6627B00DA11D661F829F72
:100640002227B00DA11D621F739FB00DA11D621F57
:10065000839FA00D611D221F749F3327A00D611D74
:10066000231F849F600D211D822F762F6A2F112456
:100670009F5750408AF0E1F088234AF0EE0FFF1FA9
:10068000BB1F661F771F881F91505040A9F79E3FE0
:10069000510570F014C0AACF5F3FECF3983EDCF335
:1006A000869577956795B795F795E7959F5FC1F71D
:1006B000FE2B880F911D9695879597F9089597F9C8
:1006C0009F6780E870E060E008959FEF80EC0895F8
:1006D00000240A9416161706180609060895002421
:1006E0000A9412161306140605060895092E03949B
:1006F000000C11F4882352F0BB0F40F4BF2B11F40F
:1007000060FF04C06F5F7F4F8F4F9F4F0895A1E23E
:100710001A2EAA1BBB1BFD010DC0AA1FBB1FEE1F7B
:10072000FF1FA217B307E407F50720F0A21BB30BC6
:10073000E40BF50B661F771F881F991F1A9469F742
:1007400060957095809590959B01AC01BD01CF019E
:100750000895BB274A3031F4992322F4BDE29095E5
:1007600081959F4F01C0BB27FB015527AA27880F02
:10077000991FAA1FA41710F0A41B83955051B9F715
:10078000A05DAA3308F0A95DA193009779F7B11194
:10079000B1931192CB0100C0DC01FC01672F719174
:1007A0007723E1F7329704C07C916D937083629157
:0C07B000AE17BF07C8F30895F894FFCF00
:1007BC00554152542073746172746564200A0000B0
:00000001FF
