S018000042696B656174726F6E50726F6A6563742E7372656396
S1130000DBC20000F9C20000F7C20000F5C2000024
S11300100C947D09F1C20000EFC20000EDC20000A3
S1130020EBC20000E9C20000E7C20000E5C2000024
S1130030E3C20000E1C20000DFC200000C94B0097A
S1130040DBC20000D9C20000D7C20000D5C2000044
S1130050D3C20000D1C20000CFC20000CDC2000054
S1130060CBC20000C9C20000C7C20000C5C2000064
S1130070C3C20000C1C20000BFC20000BDC2000074
S1130080BBC20000B9C20000B7C20000B5C2000084
S1130090B3C20000B1C20000AFC20000ADC2000094
S11300A0ABC20000A9C20000A7C20000A5C20000A4
S11300B0A3C20000A1C200009FC200009DC20000B4
S11300C09BC2000099C2000097C2000095C20000C4
S11300D093C2000091C200008FC200008DC20000D4
S11300E08BC20000000000000000000000000000BF
S11300F00000001818000018181818181818000024
S11301000000000000000036363636000000666647
S1130110FF6666FF666600000000187EFF1B1F7EF8
S1130120F8D8FF7E1800000E1BDB6E30180C76DB4F
S1130130D87000007FC6CFD87070D8CCCC6C380093
S11301400000000000000000181C0C0E00000C1839
S113015030303030303030180C000030180C0C0CBB
S11301600C0C0C0C183000000000995A3CFF3C5A4F
S1130170990000000000181818FFFF181818000054
S1130180000030181C1C00000000000000000000EB
S1130190000000FFFF0000000000000000383800ED
S11301A000000000000000006060303018180C0CE3
S11301B00606030300003C66C3E3F3DBCFC7C36654
S11301C03C00007E18181818181818783818000001
S11301D0FFC0C06030180C0603E77E00007EE70312
S11301E003077E070303E77E00000C0C0C0C0CFFD6
S11301F0CC6C3C1C0C00007EE7030307FEC0C0C0AF
S1130200C0FF00007EE7C3C3C7FEC0C0C0E77E00D6
S11302100030303030180C06030303FF00007EE783
S1130220C3C3E77EE7C3C3E77E00007EE70303039F
S11302307FE7C3C3E77E0000003838000038380089
S1130240000000000030181C1C00001C1C000000F2
S11302500000060C183060C06030180C0600000066
S113026000FFFF00FFFF0000000000006030180CDA
S11302700603060C183060000018000018180C065D
S113028003C3C37E00003F60CFDBD3DDC37E000029
S1130290000000C3C3C3C3FFC3C3C3663C1800004C
S11302A0FEC7C3C3C7FEC7C3C3C7FE00007EE7C003
S11302B0C0C0C0C0C0C0E77E0000FCCEC7C3C3C37B
S11302C0C3C3C7CEFC0000FFC0C0C0C0FCC0C0C0D8
S11302D0C0FF0000C0C0C0C0C0C0FCC0C0C0FF00A0
S11302E0007EE7C3C3CFC0C0C0C0E77E0000C3C365
S11302F0C3C3C3FFC3C3C3C3C300007E1818181805
S113030018181818187E00007CEEC60606060606A5
S11303100606060000C3C6CCD8F0E0F0D8CCC6C3AD
S11303200000FFC0C0C0C0C0C0C0C0C0C00000C387
S1130330C3C3C3C3C3DBFFFFE7C30000C7C7CFCF3B
S1130340DFDBFBF3F3E3E300007EE7C3C3C3C3C314
S1130350C3C3E77E0000C0C0C0C0C0FEC7C3C3C7DC
S1130360FE00003F6EDFDBC3C3C3C3C3663C0000B3
S1130370C3C6CCD8F0FEC7C3C3C7FE00007EE703E4
S113038003077EE0C0C0E77E00001818181818188C
S113039018181818FF00007EE7C3C3C3C3C3C3C340
S11303A0C3C30000183C3C6666C3C3C3C3C3C300D5
S11303B000C3E7FFFFDBDBC3C3C3C3C30000C366E3
S11303C0663C3C183C3C6666C300001818181818B4
S11303D0183C3C6666C30000FFC0C060307E0C065B
S11303E00303FF00003C3030303030303030303CDC
S11303F000030306060C0C18183030606000003C43
S11304000C0C0C0C0C0C0C0C0C3C00000000000040
S1130410000000C3663C18FFFF000000000000005D
S11304200000000000000000000000000018383048
S11304307000007FC3C37F03C37E00000000000080
S1130440FEC3C3C3C3FEC0C0C0C0C000007EC3C0DF
S1130450C0C0C37E0000000000007FC3C3C3C37FCD
S1130460030303030300007FC0C0FEC3C37E000078
S1130470000000003030303030FC303030331E7E2D
S1130480C303037FC3C3C37E000000000000C3C3D3
S1130490C3C3C3C3FEC0C0C0C000001818181818D6
S11304A0181800001800386C0C0C0C0C0C0C0C0008
S11304B0000C000000C6CCF8F0D8CCC6C0C0C0C048
S11304C000007E181818181818181818780000DB7F
S11304D0DBDBDBDBDBFE000000000000C6C6C6C6BB
S11304E0C6C6FC0000000000007CC6C6C6C6C67CAA
S11304F000000000C0C0C0FEC3C3C3C3FE000000B0
S1130500000303037FC3C3C3C37F000000000000D4
S1130510C0C0C0C0C0E0FE000000000000FE030335
S11305207EC0C07F0000000000001C363030303038
S1130530FC3030300000007EC6C6C6C6C6C6000009
S113054000000000183C3C6666C3C30000000000C5
S113055000C3E7FFDBC3C3C3000000000000C366A1
S11305603C183C66C300000000C0606030183C6664
S113057066C3000000000000FF6030180C06FF0096
S113058000000000000F18181838F0381818180F59
S1130590181818181818181818181818180000F02F
S11305A01818181C0F1C181818F000000000000080
S11305B0068FF1600000000011241FBECFEFD1E2CE
S11305C0DEBFCDBF00E00CBF12E0A0E0B2E0ECE57E
S11305D0F9E100E00BBF02C007900D92A036B1070D
S11305E0D9F722E0A0E6B2E001C01D92AD3BB2070C
S11305F0E1F77BD30C94AC0C03CD88B95F98A19838
S1130600A298A29A089592B988B95F9AA198A298DB
S1130610A29A089588E2F1CF089589E2EECF089571
S11306200F931F93CF93DF93082FD92F162FC72F24
S11306308AE2E3DF8D2F90E0E6DF802F9D2FE3DF5A
S11306408C2F90E0E0DF812F9C2FDDDFDF91CF91B5
S11306501F910F9108950F931F93CF93DF93082F4A
S1130660D92F162FC72F8BE2C8DF8D2F90E0CBDF59
S1130670802F9D2FC8DF8C2F90E0C5DF812F9C2F0A
S1130680C2DFDF91CF911F910F91089590930102E2
S113069080930002089590937402809373020895E6
S11306A0E3E7F2E0938382837583648308958F92F2
S11306B09F92AF92BF92CF92DF92EF92FF920F93ED
S11306C01F93CF93DF93AC01EB019C01DB010E94EC
S11306D02B0C4B015C0103E712E0F801828193814A
S11306E0BA01680F791FB7DFF80184819581BC01D5
S11306F0615071096C0F7D1F93DF8CE27EDF8114E2
S11307009104A104B10489F0C12CD12C7601E80133
S11307108881998178DFFFEFCF1ADF0AEF0AFF0A99
S11307208C149D04AE04BF0499F780E066DFDF916A
S1130730CF911F910F91FF90EF90DF90CF90BF90DA
S1130740AF909F908F9008952F923F924F925F9217
S11307506F927F928F929F92AF92BF92CF92DF92CD
S1130760EF92FF920F931F93CF93DF933C01312CB1
S11307700F2EF3E7CF2EF2E0DF2EF02D0F2EFDE04B
S11307802F2EF02D6894882487F8912C65C0F301EE
S1130790E80FF91F8081C0EEC80FF60182819381B2
S11307A0BC01685F7F4F57DFF60184819581BC01EE
S11307B0645F7F4F35DF8CE220DF2C9EC001112463
S11307C09C0120513F4F2901FC01ED51FF4F7F0156
S11307D0A12CB12C1CC0FE01849190E080239123B4
S11307E0892B29F0F601808191810DDF05C080916C
S11307F000029091010207DF2197CE15DF0559F71A
S1130800FFEFAF1ABF0A28E0A216B10449F0840131
S11308100A2C02C0159507950A94E2F7E201DBCF92
S113082080E0EBDEF601828193818831F1E09F075D
S113083028F40D96F601938382830DC0F60184811A
S11308409581823D910538F40D96958384832AE041
S113085030E0338322833394832D90E0F3010190BD
S11308600020E9F73197E619F7098E179F0708F476
S11308708ECFDF91CF911F910F91FF90EF90DF907A
S1130880CF90BF90AF909F908F907F906F905F902C
S11308904F903F902F900895CF93DF93CDB7DEB75D
S11308A02A970FB6F894DEBF0FBECDBF4AE0BE0153
S11308B06F5F7F4FF3D7CE01019646DF2A960FB6BE
S11308C0F894DEBF0FBECDBFDF91CF9108958F9214
S11308D09F92AF92BF92CF92DF92EF92FF924B0121
S11308E05C0165D66B017C01CB01D6DF8BE192E024
S11308F02BDFB60180E090E086D69B01AC01C501F8
S1130900B40184D520E030E048EC52E42ED76B01EA
S11309107C0120E030E040E251E4DDD588231CF482
S113092080E090E0B9DFC701B60141D6CB01B4DF66
S1130930FF90EF90DF90CF90BF90AF909F908F90FB
S1130940089580916002811164C083B3876083BB82
S1130950579A81B18FEF81B997B187B95F9AA29AFB
S1130960A19AA09AA0982FEF89E698E1215080409F
S11309709040E1F700C00000A09AAFEFB8E526E090
S1130980A150B0402040E1F700C0000081E135DE15
S113099044DE86E332DE88E090E035DE8AE32DDE55
S11309A085E090E030DE86E0E3E7F2E0DF011D92CF
S11309B08A95E9F7E1E6F2E08DE093E091838083A4
S11309C08AE093E09383828386E493E0958384832F
S11309D08BE493E09783868380E593E09187808717
S11309E087E593E09387828784EA93E095878487F9
S11309F08CE494E09787868787E694E0918B808BDC
S1130A008FEF9FEF909301028093000281E0809327
S1130A10600281E692E008956695669590E2699F8A
S1130A20B0011124469546954695642B8695869586
S1130A30869590E0982F8827990F990F990F862B08
S1130A40972B089560918D0270918E0280918F0290
S1130A5090919002D8D520917A0230917B024091F6
S1130A607C0250917D0281D620E030E04AE754E4D4
S1130A7036D52091890230918A0240918B0250919F
S1130A808C02C5C4089580918D0290918E02A0912C
S1130A908F02B09190020196A11DB11D80938D0229
S1130AA090938E02A0938F02B093900208952091A8
S1130AB0790230E0F901EF56FD4F8083C9010196B8
S1130AC083709078992324F401978C6F9F6F01961B
S1130AD0809379020895E1E9F2E08081618170E018
S1130AE0680F711D8281680F711D8381680F711DEC
S1130AF080E090E088D520E030E040E85EE335D641
S1130B0020917A0230917B0240917C0250917D02C7
S1130B102CD626E636E646E650E427C6089592DF4C
S1130B20AB01BC0180E090E0F1C6089520917E0203
S1130B30211159C020E030E048E453E4D0D426E544
S1130B403EE049E450E411D660937A0270937B024C
S1130B5080937C0290937D0280E090E0D2D66093F3
S1130B60890270938A0280938B0290938C02809105
S1130B708D0290918E02A0918F02B09190028F3FCE
S1130B809F4FAF4FBF4F41F410928D0210928E02CF
S1130B9010928F02109290021092B00091E0909304
S1130BA0B100E0E7F0E080818160808380EC809395
S1130BB06900EB9A7894EFE7F2E02BE635E03783AF
S1130BC0268322E235E0318720872FE835E035831C
S1130BD0248323E435E03383228327E535E031831E
S1130BE0208390937E028FE792E00895E2E0F1E0A3
S1130BF08081886080830000000000000000808104
S1130C00877F808300000000000000000895EF92B9
S1130C10FF920F931F93CF93DF93739AE2E0F1E077
S1130C209081977F9083739800000000C7E0D0E024
S1130C30EE24E394F12C082F10E097010C2E02C04F
S1130C40220F331F0A94E2F720233123232B11F0C0
S1130C50A59A01C0A598CADF219778F7A598CFE097
S1130C60D0E000E010E0EE24E394F12CBFDF659BBC
S1130C7009C0C7010C2E02C0880F991F0A94E2F71D
S1130C80082B192B219790F7739AC8019295829596
S1130C908F7089279F708927DF91CF911F910F91C2
S1130CA0FF90EF90089589E9B2CF089589EDAFCF11
S1130CB0089589ECACCF0895E1E0F1E0808188608B
S1130CC080836B9A9D9A6D986C98E5E9F2E089E5CA
S1130CD096E09583848383E596E09183808386E51B
S1130CE096E093838283CF0108954DE166EE85EB10
S1130CF093DECFE9D2E09983888348E064E088E01A
S1130D008BDE9B878A874EEB62E980E785DE9B83D7
S1130D108A834FEF6FEF8FEF7FDE9D878C874EEFD7
S1130D206EEF8EEF79DE9D838C8347E26FE78FEF62
S1130D3073DE9F878E8747EE60EC88EC6DDE9F83C1
S1130D408E8349E060EF8DEF67DE998B888B44EAF0
S1130D5069E483EA61DE998788874EE068EC8DEF69
S1130D605BDE9B8B8A8BEDDD9093B8028093B70298
S1130D70A3DF9093B6028093B50260E070E082E84E
S1130D8092E4D4DE9093B4028093B302C5E0D0E041
S1130D9004E012E0E091B502F091B6020190F08116
S1130DA0E02D19959C01225031092E3C374038F52D
S1130DB010929C0210929B0280919D0290919E023F
S1130DC0019690939E0280939D028FE19EE4019789
S1130DD0F1F700C0000080919D0290919E020B9754
S1130DE008F441C08091030290E00196BE0120D531
S1130DF08093030210929E0210929D0234C0895B7C
S1130E009B40873E934038F510929E0210929D02BB
S1130E1080919B0290919C02019690939C028093F6
S1130E209B028FE19EE40197F1F700C000008091DE
S1130E309B0290919C020B97B0F08091030288234F
S1130E4011F0815001C0802F8093030210929C0204
S1130E5010929B0208C010929E0210929D02109262
S1130E609C0210929B02A0910302809102028A17B5
S1130E7009F490CFB0E0AA0FBB1FA156BD4FE0917B
S1130E80B702F091B8020680F781E02D8D919C9114
S1130E901995E091B702F091B8020084F185E02D34
S1130EA060E070E080E090E01995E091B702F09185
S1130EB0B8020284F385E02D6FEE70E08FE391E0D9
S1130EC01995A0910302B0E0AA0FBB1FA755BD4F0F
S1130ED0E091B702F091B8020680F781E02D8D9180
S1130EE09C911995A0910302B0E0AA0FBB1FA156D3
S1130EF0BD4FE091B702F091B8020480F581E02D76
S1130F008D919C91199580910302823009F4A0C1BE
S1130F1030F4882359F0813009F483C1DEC1833071
S1130F2009F4ADC1843009F4C1C1D7C1E091B7025D
S1130F30F091B8020084F185E02D60E070E080E07B
S1130F4090E01995E091B702F091B8020284F3851C
S1130F50E02D6FEE70E08FE391E01995A09103020C
S1130F60B0E0AA0FBB1FA156BD4FE091B702F091AC
S1130F70B8020680F781E02D8D919C911995E0913E
S1130F80B702F091B8020084F185E02D63E070E0CF
S1130F9083E090E01995E091B702F091B8020284E1
S1130FA0F385E02D6AE470E08AE990E01995E09118
S1130FB0B702F091B8020084F185E02D63E070E09F
S1130FC080EA90E01995E091B702F091B8020284AA
S1130FD0F385E02D6AE470E08AE990E01995E091E8
S1130FE0B702F091B8020084F185E02D60E570E06D
S1130FF083E090E01995E091B702F091B802028481
S1131000F385E02D6AE470E08AE990E01995E091B7
S1131010B702F091B8020084F185E02D60E570E03C
S113102080EA90E01995E091B702F091B802028449
S1131030F385E02D6AE470E08AE990E01995E09187
S1131040B702F091B8020084F185E02D60EA70E007
S113105083E090E01995E091B702F091B802028420
S1131060F385E02D6AE470E087E391E01995A0919F
S11310700302B0E0AA0FBB1FA755BD4FE091B70212
S1131080F091B8020680F781E02D8D919C9119951D
S1131090E091B702F091B8020084F185E02D64E19B
S11310A070E083E290E01995E091B702F091B80204
S11310B00484F585E02D84E092E01995E091B7026F
S11310C0F091B8020084F185E02D62E370E083E2E0
S11310D090E01995E091B702F091B8020484F58587
S11310E0E02D89E092E01995E091B702F091B80201
S11310F00084F185E02D64E170E082ED90E01995C3
S1131100E091B702F091B8020484F585E02D82E104
S113111092E01995E091B702F091B8020084F1854C
S1131120E02D62E370E082ED90E01995E091B70262
S1131130F091B8020088F189E02D63EC75EF8EEC34
S113114091E41995E091B702F091B8020084F18519
S1131150E02D64E670E082E390E01995E091B70237
S1131160F091B8020484F585E02D87E192E01995A9
S1131170E091B702F091B8020084F185E02D62E8B5
S113118070E08CE390E01995E091B702F091B80219
S11311900684F785E02D8CE190E01995E091B70283
S11311A0F091B8020084F185E02D6EE670E082EDE6
S11311B090E01995E091B702F091B8020484F585A6
S11311C0E02D8DE192E01995E091B702F091B8021B
S11311D00084F185E02D6FEA70E084E690E01995D3
S11311E0E091B702F091B8020484F585E02D83E222
S11311F092E01995E091B702F091B8020084F1856C
S1131200E02D6DEC70E082E890E01995E091B70272
S1131210F091B8020684F785E02D84E690E01995F4
S11312205EC0E091B702F091B8020084F185E02D30
S113123068E770E080E590E01995E091B702F091DD
S1131240B8020484F585E02D8CE292E0199547C03C
S1131250E091B702F091B8020084F185E02D68E7CF
S113126070E080E590E01995E091B702F091B80242
S11312700484F585E02D89E392E0199530C0E0916E
S1131280B702F091B8020084F185E02D68E770E0C0
S113129080E590E01995E091B702F091B8020484DA
S11312A0F585E02D86E492E0199519C0E091B70226
S11312B0F091B8020084F185E02D68E770E080E5E4
S11312C090E01995E091B702F091B8020484F58595
S11312D0E02D83E592E0199502C0109303028091FA
S11312E00302809302029FEF29E648E191502040D7
S11312F04040E1F700C000004DCD1F920F920FB6A1
S11313000F9211240BB60F922F933F934F935F9339
S11313106F937F938F939F93AF93BF93EF93FF93B9
S1131320E091B302F091B4020280F381E02D1995AB
S11313308091B9028F5F8093B902FF91EF91BF91C1
S1131340AF919F918F917F916F915F914F913F9159
S11313502F910F900BBE0F900FBE0F901F901895FA
S11313601F920F920FB60F9211240BB60F922F9368
S11313703F934F935F936F937F938F939F93AF9319
S1131380BF93EF93FF938091BB029091BC020196AF
S11313909093BC028093BB028432944FB1F41092B8
S11313A0BC021092BB022D9AE091B302F091B402F8
S11313B00190F081E02D8091B90219951092B90243
S11313C08091BA028F5F8093BA028091BA028D3302
S11313D050F01092BA02E091B302F091B40204808A
S11313E0F581E02D1995FF91EF91BF91AF919F91F8
S11313F08F917F916F915F914F913F912F910F90BA
S11314000BBE0F900FBE0F901F9018955058BB271E
S1131410AA270ED070C161D130F066D120F031F42A
S11314209F3F11F41EF456C10EF4E095E7FB4CC146
S1131430E92F72D180F3BA176207730784079507FF
S113144018F071F49EF58AC10EF4E0950B2EBA2FB4
S1131450A02D0B01B90190010C01CA01A0011124B6
S1131460FF27591B99F0593F50F4503E68F11A1662
S1131470F040A22F232F342F4427585FF3CF4695F3
S113148037952795A795F0405395C9F77EF41F1615
S1131490BA0B620B730B840BBAF09150A1F0FF0FDF
S11314A0BB1F661F771F881FC2F70EC0BA0F621FCB
S11314B0731F841F48F4879577956795B795F795BB
S11314C09E3F08F0B3CF9395880F08F09927EE0F4D
S11314D0979587950895D4D008F481E008950CD0A9
S11314E00AC102D140F0F9D030F021F45F3F19F085
S11314F0EBC0511134C1EEC00FD198F39923C9F355
S11315005523B1F3951B550BBB27AA276217730705
S1131510840738F09F5F5F4F220F331F441FAA1FB9
S1131520A9F333D00E2E3AF0E0E830D09150504079
S1131530E695001CCAF729D0FE2F27D0660F771F27
S1131540881FBB1F261737074807AB07B0E809F009
S1131550BB0B802DBF01FF2793585F4F2AF09E3F9E
S1131560510568F0B1C0FBC05F3FECF3983EDCF37B
S1131570869577956795B795F7959F5FC9F7880F17
S1131580911D9695879597F90895E1E0660F771F69
S1131590881FBB1F621773078407BA0720F0621BFA
S11315A0730B840BBA0BEE1F88F7E0950895BCD03B
S11315B088F09F5790F0B92F9927B751A0F0D1F038
S11315C0660F771F881F991F1AF0BA95C9F712C0C2
S11315D0B13081F0C3D0B1E00895C0C0672F782F37
S11315E08827B85F39F0B93FCCF38695779567952E
S11315F0B395D9F73EF490958095709561957F4F9A
S11316008F4F9F4F0895E89409C097FB3EF490953F
S11316108095709561957F4F8F4F9F4F9923A9F0C7
S1131620F92F96E9BB279395F69587957795679556
S1131630B795F111F8CFFAF4BB0F11F460FF1BC09A
S11316406F5F7F4F8F4F9F4F16C0882311F096E92D
S113165011C0772321F09EE8872F762F05C06623DB
S113166071F096E8862F70E060E02AF09A95660F94
S1131670771F881FDAF7880F9695879597F908954D
S1131680990F0008550FAA0BE0E8FEEF161617068F
S1131690E807F907C0F012161306E407F50798F0F7
S11316A0621B730B840B950B39F40A2661F0232B10
S11316B0242B252B21F408950A2609F4A140A6958C
S11316C08FEF811D811D089597F99F6780E870E071
S11316D060E008959FEF80EC089500240A941616A4
S11316E0170618060906089500240A94121613060C
S11316F0140605060895092E0394000C11F488239A
S113170052F0BB0F40F4BF2B11F460FF04C06F5FB5
S11317107F4F8F4F9F4F089557FD9058440F551F8B
S113172059F05F3F71F04795880F97FB991F61F05F
S11317309F3F79F087950895121613061406551FD6
S1131740F2CF4695F1DF08C0161617061806991F42
S1131750F1CF86957105610508940895E894BB2737
S113176066277727CB0197F908950BD0C4CFB5DF4F
S113177028F0BADF18F0952309F0A6CFABCF1124D7
S1131780EECFCADFA0F3959FD1F3950F50E0551F1C
S1131790629FF001729FBB27F00DB11D639FAA27C2
S11317A0F00DB11DAA1F649F6627B00DA11D661F11
S11317B0829F2227B00DA11D621F739FB00DA11D32
S11317C0621F839FA00D611D221F749F3327A00DEC
S11317D0611D231F849F600D211D822F762F6A2F88
S11317E011249F5750408AF0E1F088234AF0EE0F0D
S11317F0FF1FBB1F661F771F881F91505040A9F71A
S11318009E3F510570F060CFAACF5F3FECF3983E46
S1131810DCF3869577956795B795F795E7959F5F80
S1131820C1F7FE2B880F911D9695879597F908951A
S113183097FB072E16F4009406D077FD08D01AD033
S113184007FC05D03EF4909581959F4F08957095BF
S113185061957F4F0895A29FB001B39FC001A39FDC
S1131860700D811D1124911DB29F700D811D1124D5
S1131870911D0895AA1BBB1B51E107C0AA1FBB1FE2
S1131880A617B70710F0A61BB70B881F991F5A9508
S1131890A9F780959095BC01CD010895BB274A30E6
S11318A031F4992322F4BDE2909581959F4F01C0B4
S11318B0BB27FB015527AA27880F991FAA1FA41726
S11318C010F0A41B83955051B9F7A05DAA3308F01A
S11318D0A95DA193009779F7B111B1931192CB014E
S11318E000C0DC01FC01672F71917723E1F7329787
S11318F004C07C916D9370836291AE17BF07C8F3E7
S11319000895A6E1B0E044E050E00AC0242F17D0C7
S1131910252F15D000C012D0272F11C0DC01CB0118
S1131920FC01F999FECF06C0F2BDE1BDF89A3196EB
S113193000B40D9241505040B8F70895262FF999FC
S1131940FECF1FBA92BD81BD20BD0FB6F894FA9A9E
S10F1950F99A0FBE01960895F894FFCF99
S113195CFFFF0302446174650031342D30352D32A0
S113196C30006B6D2F740054656D702E00537465CC
S113197C6570004B6D20636F756E7400204D494C7F
S113198C4553544F4E4520200020202054454D50A3
S113199C20202020200020202056454C4F202020A1
S11319AC20200020202053544550202020202000AB
S9030000FC
