:10000000DBC20000F9C20000F7C20000F5C2000028
:100010000C94E20DF1C20000EFC20000EDC200003E
:10002000EBC20000E9C20000E7C20000E5C2000028
:10003000E3C20000E1C20000DFC200000C94F30D37
:10004000DBC20000D9C20000D7C20000D5C2000048
:10005000D3C20000D1C20000CFC20000CDC2000058
:10006000CBC20000C9C20000C7C20000C5C2000068
:10007000C3C20000C1C20000BFC20000BDC2000078
:10008000BBC20000B9C20000B7C20000B5C2000088
:10009000B3C20000B1C20000AFC20000ADC2000098
:1000A000ABC20000A9C20000A7C20000A5C20000A8
:1000B000A3C20000A1C200009FC200009DC20000B8
:1000C0009BC2000099C2000097C2000095C20000C8
:1000D00093C2000091C200008FC200008DC20000D8
:1000E0008BC20000000000000000000000000000C3
:1000F0000000001818000018181818181818000028
:10010000000000000000003636363600000066664B
:10011000FF6666FF666600000000187EFF1B1F7EFC
:10012000F8D8FF7E1800000E1BDB6E30180C76DB53
:10013000D87000007FC6CFD87070D8CCCC6C380097
:100140000000000000000000181C0C0E00000C183D
:1001500030303030303030180C000030180C0C0CBF
:100160000C0C0C0C183000000000995A3CFF3C5A53
:10017000990000000000181818FFFF181818000058
:10018000000030181C1C00000000000000000000EF
:10019000000000FFFF0000000000000000383800F1
:1001A00000000000000000006060303018180C0CE7
:1001B0000606030300003C66C3E3F3DBCFC7C36658
:1001C0003C00007E18181818181818783818000005
:1001D000FFC0C06030180C0603E77E00007EE70316
:1001E00003077E070303E77E00000C0C0C0C0CFFDA
:1001F000CC6C3C1C0C00007EE7030307FEC0C0C0B3
:10020000C0FF00007EE7C3C3C7FEC0C0C0E77E00DA
:100210000030303030180C06030303FF00007EE787
:10022000C3C3E77EE7C3C3E77E00007EE7030303A3
:100230007FE7C3C3E77E000000383800003838008D
:10024000000000000030181C1C00001C1C000000F6
:100250000000060C183060C06030180C060000006A
:1002600000FFFF00FFFF0000000000006030180CDE
:100270000603060C183060000018000018180C0661
:1002800003C3C37E00003F60CFDBD3DDC37E00002D
:10029000000000C3C3C3C3FFC3C3C3663C18000050
:1002A000FEC7C3C3C7FEC7C3C3C7FE00007EE7C007
:1002B000C0C0C0C0C0C0E77E0000FCCEC7C3C3C37F
:1002C000C3C3C7CEFC0000FFC0C0C0C0FCC0C0C0DC
:1002D000C0FF0000C0C0C0C0C0C0FCC0C0C0FF00A4
:1002E000007EE7C3C3CFC0C0C0C0E77E0000C3C369
:1002F000C3C3C3FFC3C3C3C3C300007E1818181809
:1003000018181818187E00007CEEC60606060606A9
:100310000606060000C3C6CCD8F0E0F0D8CCC6C3B1
:100320000000FFC0C0C0C0C0C0C0C0C0C00000C38B
:10033000C3C3C3C3C3DBFFFFE7C30000C7C7CFCF3F
:10034000DFDBFBF3F3E3E300007EE7C3C3C3C3C318
:10035000C3C3E77E0000C0C0C0C0C0FEC7C3C3C7E0
:10036000FE00003F6EDFDBC3C3C3C3C3663C0000B7
:10037000C3C6CCD8F0FEC7C3C3C7FE00007EE703E8
:1003800003077EE0C0C0E77E000018181818181890
:1003900018181818FF00007EE7C3C3C3C3C3C3C344
:1003A000C3C30000183C3C6666C3C3C3C3C3C300D9
:1003B00000C3E7FFFFDBDBC3C3C3C3C30000C366E7
:1003C000663C3C183C3C6666C300001818181818B8
:1003D000183C3C6666C30000FFC0C060307E0C065F
:1003E0000303FF00003C3030303030303030303CE0
:1003F00000030306060C0C18183030606000003C47
:100400000C0C0C0C0C0C0C0C0C3C00000000000044
:10041000000000C3663C18FFFF0000000000000061
:10042000000000000000000000000000001838304C
:100430007000007FC3C37F03C37E00000000000084
:10044000FEC3C3C3C3FEC0C0C0C0C000007EC3C0E3
:10045000C0C0C37E0000000000007FC3C3C3C37FD1
:10046000030303030300007FC0C0FEC3C37E00007C
:10047000000000003030303030FC303030331E7E31
:10048000C303037FC3C3C37E000000000000C3C3D7
:10049000C3C3C3C3FEC0C0C0C000001818181818DA
:1004A000181800001800386C0C0C0C0C0C0C0C000C
:1004B000000C000000C6CCF8F0D8CCC6C0C0C0C04C
:1004C00000007E181818181818181818780000DB83
:1004D000DBDBDBDBDBFE000000000000C6C6C6C6BF
:1004E000C6C6FC0000000000007CC6C6C6C6C67CAE
:1004F00000000000C0C0C0FEC3C3C3C3FE000000B4
:10050000000303037FC3C3C3C37F000000000000D8
:10051000C0C0C0C0C0E0FE000000000000FE030339
:100520007EC0C07F0000000000001C36303030303C
:10053000FC3030300000007EC6C6C6C6C6C600000D
:1005400000000000183C3C6666C3C30000000000C9
:1005500000C3E7FFDBC3C3C3000000000000C366A5
:100560003C183C66C300000000C0606030183C6668
:1005700066C3000000000000FF6030180C06FF009A
:1005800000000000000F18181838F0381818180F5D
:10059000181818181818181818181818180000F033
:1005A0001818181C0F1C181818F000000000000084
:1005B000068FF1600000000011241FBECFEFD1E2D2
:1005C000DEBFCDBF00E00CBF12E0A0E0B2E0EAE485
:1005D000F5E200E00BBF02C007900D92A835B1070D
:1005E000D9F722E0A8E5B2E001C01D92AC3FB20706
:1005F000E1F7E7D70C94A31203CDE4E6F0E0908195
:100600009E7F908310927C00EAE7F0E010821092C7
:100610007B00908197609083908190689083809315
:100620005C028130A1F028F08230D1F0833009F1F2
:100630000895ECE7F0E080818F7380834093580247
:100640005093590260935A0270935B020895ECE74D
:10065000F0E080818F77808380818064808308953B
:10066000ECE7F0E080818F7B8083808180688083ED
:100670000895ECE7F0E08081806C808308958830F5
:1006800030F4ECE7F0E09081892B80830DC0885036
:10069000883050F4EBE7F0E0908198609083ECE7CD
:1006A000F0E09081892B8083EAE7F0E0808180642C
:1006B0008083808186FDFDCF809178002091790034
:1006C000237090E0922B0895DADFBC0180E090E087
:1006D0000E94F21020E030E040E85AE30E948411CA
:1006E00020E030E04AE754E40E9484110E94C610E2
:1006F00020915C022130C1F028F0223019F1233022
:1007000079F13CC080E090E00E94F2102091580204
:100710003091590240915A0250915B020E9484111B
:100720000E94C610CB01089580E090E00E94F21074
:1007300020E030E040EA50E40E9484110E94C6109C
:10074000CB01089580E090E00E94F2102DEC3CEC8B
:100750004CE85FE30E9484110E94C610CB0108950B
:1007600080E090E00E94F2102AE037ED43E250E48E
:100770000E9484110E94C610CB01089580E090E091
:10078000089580915D02811111C0EEE5F2E08DEFD8
:1007900092E0918380838FE393E09383828384E666
:1007A00093E09583848381E080935D028EE592E0FF
:1007B000089561382AE1720726E082079105C8F59D
:1007C000E4E6F0E020812F772083ECEBF0E020815D
:1007D0002460208340936602442319F02081216025
:1007E00020830E94F21020E030E040E051E40E94BB
:1007F00084119B01AC0160E074E284E79BE40E94F9
:100800005E1020E030E040E050E40E94F90F0E94CA
:10081000C610662389F0E9EBF0E080818E7F80834B
:1008200080818D7F8083E8EBF0E06083808190E0C1
:10083000089583E690E0089580E090E0089508959B
:10084000ECEBF0E010828081846A80838091660204
:10085000811103C080818823ECF7089584E9809397
:10086000BC000895611104C0880F8093BB0006C0CE
:10087000613021F4880F81608093BB00ECEBF0E0E5
:100880008081806880838081846A80838091660211
:10089000811103C080818823ECF708958093BB0009
:1008A00084E88093BC0080916602811105C0ECEB66
:1008B000F0E080818823ECF70895811104C084EC76
:1008C0008093BC0003C084E88093BC0080916602E2
:1008D000811108C0ECEBF0E080818823ECF7809177
:1008E000BB00089580E0089580936402089580918C
:1008F000640208958091B900887F0895809165020F
:1009000081112DC0E7E6F2E089ED93E091838083C9
:100910008FE194E09383828380E294E095838483E3
:100920008EE294E09783868382E394E091878087C8
:100930008EE494E0938782878DE594E095878487A1
:1009400084E794E09787868787E794E0918B808B94
:100950008AE794E0938B828B81E08093650287E63F
:1009600092E00895E1E0F1E0808180618083808100
:100970008062808381E08093A10089E28093A0005F
:100980000895853608F084E62FEF829FC001112478
:1009900064E670E00E940B1277277093AB006093BF
:1009A000AA000895853608F084E62FEF829FC001E3
:1009B000112464E670E00E940B1277277093AD005B
:1009C0006093AC000895EBE7F2E082EB94E0918352
:1009D000808381EC94E09383828382ED94E095831D
:1009E0008483CF0108957093820260938102809383
:1009F00083020895E0918502F09186020480F581DA
:100A0000E02D80918302199521E04091810250915F
:100A100082028417950708F020E0822F08959C0138
:100A200090918402911111C0309386022093850227
:100A3000E7E8F2E083EF94E0918380838AEF94E02B
:100A40009383828381E08093840287E892E0089513
:100A50008F929F92AF92BF92CF92DF92EF92FF92CE
:100A60000F931F93CF93DF93EC016B015A01490160
:100A7000E0918F02F09190020480F581E02D1995AC
:100A8000E0918F02F09190020084F185E02D60E00A
:100A900088E61995E0918F02F09190020284F38527
:100AA000E02D80E01995E0918F02F0919002068090
:100AB000F781E02D1995E0918F02F091900204806A
:100AC000F581E02D1995E0918F02F091900200845C
:100AD000F185E02D61E088E61995E0918F02F091B3
:100AE00090020484F585E02D80E019958F77982F8A
:100AF00092959F70292F220F920F990F891BF70152
:100B00008083E0918F02F09190020484F585E02DBE
:100B100080E01995982F92959F70292F220F920FA0
:100B2000990F891BF8018083E0918F02F091900268
:100B30000484F585E02D80E01995982F92959F709B
:100B4000292F220F920F990F891BF4018083E091C6
:100B50008F02F09190020484F585E02D80E01995D4
:100B6000E0918F02F09190020484F585E02D80E001
:100B70001995982F92959F70292F220F920F990FF8
:100B8000891BF5018083E0918F02F091900204842B
:100B9000F585E02D80E01995982F92959F70292F6B
:100BA000220F920F990F891BF6018083E0918F022B
:100BB000F09190020484F585E02D81E01995982F3D
:100BC00092959F70292F220F920F990F891B88836E
:100BD000E0918F02F09190020680F781E02D199547
:100BE000DF91CF911F910F91FF90EF90DF90CF9009
:100BF000BF90AF909F908F900895CF92DF92EF9229
:100C0000FF920F931F93CF93DF939BE39C1508F400
:100C1000D2C09E1508F4CFC0083108F0CCC09FEFB9
:100C2000940F9F3108F0C7C09FEF920F973008F0E4
:100C3000C2C09FEF960F9C3008F0BDC0843608F00C
:100C4000BAC0D22FC42F162FF82EE0918F02F09148
:100C500090020480F581E02D1995E0918F02F091CA
:100C600090020084F185E02D60E088E61995E0911E
:100C70008F02F09190020284F385E02D80E01995B7
:100C80000F2EFDECDF2EF02DCD9C812D11248695AD
:100C900086958695982F990F890F880FE0918F027E
:100CA000F09190020284F385E02D8C0D1995ED9C56
:100CB000812D1124869586958695982F990F890FF9
:100CC000880FE0918F02F09190020284F385E02D6D
:100CD0008E0D19950D9D812D1124869586958695ED
:100CE000982F990F890F880FE0918F02F091900251
:100CF0000284F385E02D800F1995DD9D812D11244F
:100D0000869586958695982F990F890F880FE09183
:100D10008F02F09190020284F385E02D8D0F1995DA
:100D2000CD9D812D1124869586958695982F990FB6
:100D3000890F880FE0918F02F09190020284F38571
:100D4000E02D8C0F19951D9D812D1124869586957A
:100D50008695982F990F890F880FE0918F02F09157
:100D600090020284F385E02D810F1995FD9CD12C12
:100D70001124D694D694D6948D2D880FD80E8D2D0F
:100D8000880FE0918F02F09190020284F385E02DAC
:100D90008F0D1995E0918F02F09190020284F385F6
:100DA000E02D80E01995E0918F02F091900206808D
:100DB000F781E02D1995DF91CF911F910F91FF9051
:100DC000EF90DF90CF9008959093900280938F02E0
:100DD000EBE8F2E08DEF95E09183808388E295E087
:100DE00093838283CF01089588B95F98A198A298D0
:100DF000A29A089592B988B95F9AA198A298A29AE6
:100E0000089588E2F1CF089589E2EECF08950F9317
:100E10001F93CF93DF93082FD92F162FC72F8AE266
:100E2000E3DF8D2F90E0E6DF802F9D2FE3DF8C2F17
:100E300090E0E0DF812F9C2FDDDFDF91CF911F91CC
:100E40000F9108950F931F93CF93DF93082FD92FFE
:100E5000162FC72F8BE2C8DF8D2F90E0CBDF802FBE
:100E60009D2FC8DF8C2F90E0C5DF812F9C2FC2DF24
:100E7000DF91CF911F910F9108959093010280937C
:100E8000000208959093A5028093A4020895E4EAD5
:100E9000F2E0938382837583648308958F929F9297
:100EA000AF92BF92CF92DF92EF92FF920F931F9378
:100EB000CF93DF93AC01EB019C01DB010E941E127A
:100EC0004B015C0104EA12E0F80182819381BA01CE
:100ED000680F791FB7DFF80184819581BC016150EB
:100EE00071096C0F7D1F93DF8CE27EDF811491040A
:100EF000A104B10489F0C12CD12C7601E8018881CC
:100F0000998178DFFFEFCF1ADF0AEF0AFF0A8C140E
:100F10009D04AE04BF0499F780E066DFDF91CF91B6
:100F20001F910F91FF90EF90DF90CF90BF90AF9007
:100F30009F908F9008952F923F924F925F926F9261
:100F40007F928F929F92AF92BF92CF92DF92EF9259
:100F5000FF920F931F93CF93DF933C01312C0F2E01
:100F6000F4EACF2EF2E0DF2EF02D0F2EFDE02F2E33
:100F7000F02D6894882487F8912C65C0F301E80F60
:100F8000F91F8081C0EEC80FF60182819381BC01F8
:100F9000685F7F4F57DFF60184819581BC01645FF4
:100FA0007F4F35DF8CE220DF2C9EC00111249C0195
:100FB00020513F4F2901FC01ED51FF4F7F01A12C32
:100FC000B12C1CC0FE01849190E080239123892BD9
:100FD00029F0F601808191810DDF05C0809100022A
:100FE0009091010207DF2197CE15DF0559F7FFEF3A
:100FF000AF1ABF0A28E0A216B10449F084010A2CF6
:1010000002C0159507950A94E2F7E201DBCF80E074
:10101000EBDEF601828193818831F1E09F0728F4AD
:101020000D96F601938382830DC0F601848195812C
:10103000823D910538F40D96958384832AE030E053
:10104000338322833394832D90E0F30101900020B9
:10105000E9F73197E619F7098E179F0708F48ECF45
:10106000DF91CF911F910F91FF90EF90DF90CF9084
:10107000BF90AF909F908F907F906F905F904F90B8
:101080003F902F900895CF93DF93CDB7DEB72A9787
:101090000FB6F894DEBF0FBECDBF4AE0BE016F5F52
:1010A0007F4F0E944112CE01019645DF2A960FB66E
:1010B000F894DEBF0FBECDBFDF91CF9108958F9220
:1010C0009F92AF92BF92CF92DF92EF92FF924B012D
:1010D0005C010E94C6106B017C01CB01D4DF82E170
:1010E00092E029DF20E030E048EC52E4C501B40191
:1010F0000E9484114B015C0184E68C9DB0018D9DA2
:10110000700D112480E090E00E94F2109B01AC0170
:10111000C501B4016ED70E94C6106B017C018AE044
:10112000C816D10418F480E090E0ADDFC601ABDF53
:10113000FF90EF90DF90CF90BF90AF909F908F90F7
:10114000089580919102811164C083B3876083BB4D
:10115000579A81B18FEF81B997B187B95F9AA29AF7
:10116000A19AA09AA0982FEF89E698E1215080409B
:101170009040E1F700C00000A09AAFEFB8E526E08C
:10118000A150B0402040E1F700C0000081E12CDE1A
:101190003BDE86E329DE88E090E02CDE8AE324DE75
:1011A00085E090E027DE86E0E4EAF2E0DF011D92D0
:1011B0008A95E9F7E2E9F2E084E097E091838083A1
:1011C00081E097E0938382838DE397E09583848326
:1011D00082E497E09783868387E497E0918780870E
:1011E0008EE497E0938782878BE997E095878487E1
:1011F00083E498E0978786878FE598E0918B808BD2
:101200008FEF9FEF909301028093000281E0809323
:10121000910282E992E008956695669590E2699F51
:10122000B0011124469546954695642B8695869582
:10123000869590E0982F8827990F990F990F862B04
:10124000972B08956091BE027091BF028091C002F9
:101250009091C102C7D72091AB023091AC0240916E
:10126000AD025091AE020E94841120E030E04AE7C6
:1012700054E424D72091BA023091BB024091BC02C1
:101280005091BD02B7C608958091BE029091BF02F1
:10129000A091C002B091C1020196A11DB11D809321
:1012A000BE029093BF02A093C002B093C102089502
:1012B0002091AA0230E0F901EE53FD4F8083C9016D
:1012C000019683709078992324F401978C6F9F6F17
:1012D00001968093AA020895E2ECF2E08081618198
:1012E00070E0680F711D8281680F711D8381680F26
:1012F000711D80E090E076D720E030E040E85EE3CA
:101300000E9484112091AB023091AC024091AD0259
:101310005091AE02F9D726E636E646E650E4F4C729
:10132000089590DFAB01BC0180E090E00C9479124D
:101330000895CF92DF92EF92FF922091AF02211198
:101340005EC020E030E048E453E4B8D626E53EE055
:1013500049E450E4D9D76093AB027093AC02809318
:10136000AD029093AE0280E090E00E9474126B0197
:101370007C0120E030E44CE156E4C2D718164CF072
:10138000C092BA02D092BB02E092BC02F092BD02BF
:1013900008C01092BA021092BB021092BC021092C6
:1013A000BD021092BE021092BF021092C0021092B3
:1013B000C1021092B00091E09093B100E0E7F0E03C
:1013C00080818160808380EC80936900EB9AE0EB00
:1013D000F2E02CE639E03783268322E239E03187D8
:1013E000208721E939E03583248324E439E03383FD
:1013F000228328E539E0318320839093AF0280EB8C
:1014000092E0FF90EF90DF90CF900895CF93DF931D
:1014100000D01F921F92CDB7DEB7DC01249A2C9822
:101420002FEF89EF90E0215080409040E1F700C01D
:1014300000002C9A24981C99FECF1C9BFECF1C996F
:10144000FECFFE013196AE014A5F5F4F90E013C0C0
:101450001C9BFECF80EA8A95F1F71C9B03C0990F75
:10146000916001C0990F1C99FECF215089F791938B
:10147000E417F50711F028E0EBCF49815B818A8101
:10148000242F30E0280F311D250F311D8C81280FAE
:10149000311D8D8190E02817390719F45C93FB0109
:1014A00040830F900F900F900F900F90DF91CF918E
:1014B000089586E09AE09093C7028093C60286EC76
:1014C00092E00895E2E0F1E080818860808300008E
:1014D0000000000000008081877F80830000000002
:1014E000000000000895EF92FF920F931F93CF9397
:1014F000DF93739AE2E0F1E09081977F9083739895
:1015000000000000C7E0D0E0EE24E394F12C082FA7
:1015100010E097010C2E02C0220F331F0A94E2F74D
:1015200020233123232B11F0A59A01C0A598CADFEF
:10153000219778F7A598CFE0D0E000E010E0EE2406
:10154000E394F12CBFDF659B09C0C7010C2E02C0DC
:10155000880F991F0A94E2F7082B192B219790F70F
:10156000739AC801929582958F7089279F708927F9
:10157000DF91CF911F910F91FF90EF90089589E92E
:10158000B2CF089589EDAFCF089589ECACCF08951F
:10159000E1E0F1E08081886080836B9A9D9A6D988C
:1015A0006C98E8ECF2E085EC9AE0958384838FEB0D
:1015B0009AE09183808382EC9AE093838283CF01C7
:1015C00008954DE166EE85EB27DEC2EDD2E099830A
:1015D000888348E064E088E01FDE9B878A874EEBC3
:1015E00062E980E719DE9B838A834FEF6FEF8FEF0D
:1015F00013DE9D878C874EEF6EEF8EEF0DDE9D83A1
:101600008C8347E26FE78FEF07DE9F878E8747EE79
:1016100060EC88EC01DE9F838E8349E060EF8DEF04
:10162000FBDD998B888B44EA69E483EAF5DD9987D1
:1016300088874EE068EC8DEFEFDD9B8B8A8B81DD38
:101640009093F7028093F602A3DF9093F5028093C4
:10165000F40260E070E082E892E46BDE9093F302C3
:101660008093F20226DF9093F1028093F00289D8F2
:101670009093EB028093EA02A6D99093E7028093BD
:10168000E6028091EA029091EB02C9D99093E902B7
:101690008093E80233D99093ED028093EC0294DBBF
:1016A0009093EF028093EE02DC01ED91FC910F2EFE
:1016B000FEE1CF2EF02D0F2EFDE2EF2EF02D00E1FA
:1016C00023E044E165E084E11995E091EC02F091BA
:1016D000ED020190F081E02D40E060E177E280E0F2
:1016E00090E01995E091EC02F091ED020684F78507
:1016F000E02D80E01995E091EA02F091EB02019073
:10170000F081E02D40E050E0BA0181E01995E091D0
:10171000E802F091E9020190F081E02D64EB70E0C5
:1017200080E01995E091E602F091E7020190F081E6
:10173000E02D19957894C5E0D0E004E012E0E09146
:10174000F402F091F5020190F081E02D19959C01D1
:10175000225031092E3C374038F51092CF021092BA
:10176000CE028091D0029091D10201969093D10245
:101770008093D0028FE19EE40197F1F700C0000052
:101780008091D0029091D1020B9708F441C08091D2
:10179000030290E00196BE013ED6809303021092B0
:1017A000D1021092D00234C0895B9B40873E9340A7
:1017B00038F51092D1021092D0028091CE02909111
:1017C000CF0201969093CF028093CE028FE19EE4E8
:1017D0000197F1F700C000008091CE029091CF02F6
:1017E0000B97B0F080910302882311F0815001C063
:1017F000802F809303021092CF021092CE0208C075
:101800001092D1021092D0021092CF021092CE020A
:10181000A0910302809102028A1709F490CFB0E0F0
:10182000AA0FBB1FAE52BD4FE091F602F091F70236
:101830000680F781E02D8D919C911995E091F6023B
:10184000F091F7020084F185E02D60E070E080E027
:1018500090E01995E091F602F091F7020284F38589
:10186000E02D6FEE70E08FE391E01995A0910302F7
:10187000B0E0AA0FBB1FA452BD4FE091F602F09159
:10188000F7020680F781E02D8D919C911995A0912A
:101890000302B0E0AA0FBB1FAE52BD4FE091F602AB
:1018A000F091F7020480F581E02D8D919C911995BE
:1018B00080910302823009F430C130F4882359F05A
:1018C000813009F413C16EC1833009F43DC1843005
:1018D00009F451C167C1E091F602F091F70200846A
:1018E000F185E02D60E070E080E090E01995E091F6
:1018F000F602F091F7020284F385E02D6FEE70E0BE
:101900008FE391E01995A0910302B0E0AA0FBB1FED
:10191000AE52BD4FE091F602F091F7020680F781DA
:10192000E02D8D919C911995E091F602F091F702CE
:101930000084F185E02D63E070E083E090E019958C
:10194000E091F602F091F7020284F385E02D6AE45B
:1019500070E08AE990E01995E091F602F091F702C3
:101960000084F185E02D63E070E080EA90E0199555
:10197000E091F602F091F7020284F385E02D6AE42B
:1019800070E08AE990E01995E091F602F091F70293
:101990000084F185E02D60E570E083E090E019952A
:1019A000E091F602F091F7020284F385E02D6AE4FB
:1019B00070E08AE990E01995E091F602F091F70263
:1019C0000084F185E02D60E570E080EA90E01995F3
:1019D000E091F602F091F7020284F385E02D6AE4CB
:1019E00070E08AE990E01995E091F602F091F70233
:1019F0000084F185E02D60EA70E083E090E01995C5
:101A0000E091F602F091F7020284F385E02D6AE49A
:101A100070E087E391E01995A0910302B0E0AA0F6E
:101A2000BB1FA452BD4FE091F602F091F702068071
:101A3000F781E02D8D919C911995E091F602F0913E
:101A4000F7020084F185E02D64E170E083E290E02C
:101A50001995E091F602F091F7020484F585E02DE6
:101A600084E092E01995E091F602F091F70200848B
:101A7000F185E02D64E170E082ED90E01995E09150
:101A8000F602F091F7020484F585E02D89E092E0FA
:101A90001995E091F602F091F7020084F185E02DAE
:101AA00064E670E082E390E01995E091F602F0912F
:101AB000F7020484F585E02D8EE092E01995E0911F
:101AC000F602F091F7020084F185E02D6FEA70E0F4
:101AD00084E690E01995E091F602F091F702048413
:101AE000F585E02D84E192E019955EC0E091F60263
:101AF000F091F7020084F185E02D68E770E080E561
:101B000090E01995E091F602F091F7020484F585D2
:101B1000E02D8DE192E0199547C0E091F602F09139
:101B2000F7020084F185E02D68E770E080E590E041
:101B30001995E091F602F091F7020484F585E02D05
:101B40008AE292E0199530C0E091F602F091F70236
:101B50000084F185E02D68E770E080E590E019955C
:101B6000E091F602F091F7020484F585E02D87E319
:101B700092E0199519C0E091F602F091F702008405
:101B8000F185E02D6AE570E080E590E01995E0913F
:101B9000F602F091F7020484F585E02D84E492E0EA
:101BA000199502C0109303028091030280930202F0
:101BB0009FEFA9E6B8E19150A040B040E1F700C026
:101BC0000000BDCD1F920F920FB60F9211248F937C
:101BD0008091F8028F5F8093F8028F910F900FBE73
:101BE0000F901F9018951F920F920FB60F9211240D
:101BF0000BB60F92CF92DF92EF92FF920F931F934B
:101C00002F933F934F935F936F937F938F939F9304
:101C1000AF93BF93EF93FF93CF93DF93CDB7DEB72F
:101C20002897DEBFCDBF8091FA029091FB0201960A
:101C30009093FB028093FA028432944F09F0AAC178
:101C40001092FB021092FA022D9AE091F202F091AA
:101C5000F3020190F081E02D8091F8021995109225
:101C6000F8028091F9028F5F8093F902809102025D
:101C70009091030289138EC1823009F41BC130F4A4
:101C8000882359F0813009F4F8C081C1833009F408
:101C900035C1843009F44FC17AC1E091F602F09168
:101CA000F7020084F185E02D62E370E083E290E0CA
:101CB0001995E091EE02F091EF020280F381E02DA0
:101CC000CE0104967C018E010B5F1F4F9E012A5F9F
:101CD0003F4FAE014F5F5F4FBE016E5F7F4F019779
:101CE00019958E81E091F602F091F7020684F7854E
:101CF000E02D90E01995E091F602F091F70204844E
:101D0000F585E02D81E592E019958D81E091F6024F
:101D1000F091F7020684F785E02D90E01995E091A7
:101D2000F602F091F7020484F585E02D81E592E05A
:101D300019958C81E091F602F091F7020684F785FF
:101D4000E02D90E01995E091F602F091F702008401
:101D5000F185E02D62E370E082ED90E01995E0916D
:101D6000F602F091F70200891189E091F202F091F8
:101D7000F3020680F781E02D1995F8011995E0919D
:101D8000F602F091F7020084F185E02D62E870E040
:101D90008CE390E01995E091F002F091F10201904E
:101DA000F081E02DBE01695F7F4FCE010896199545
:101DB0008885E091F602F091F7020684F785E02D20
:101DC00090E01995E091F602F091F7020084F18518
:101DD000E02D6EE670E082ED90E019958981E0914A
:101DE000F602F091F7020684F785E02D90E0199550
:101DF000E091F602F091F7020484F585E02D83E589
:101E000092E019958A81E091F602F091F70206843A
:101E1000F785E02D90E01995E091F602F091F70238
:101E20000484F585E02D83E592E019958B81E0919E
:101E3000F602F091F7020684F785E02D90E01995FF
:101E4000E091F602F091F7020084F185E02D6DEC4F
:101E500070E082E890E01995E091F602F091F702C7
:101E600000891189E091F202F091F3020084F1857A
:101E7000E02D1995F80119958DC0E091F602F091C9
:101E8000F7020084F185E02D6CE870E080E590E0D9
:101E90001995E091F602F091F70200891189E0911D
:101EA000F202F091F3020084F185E02D1995F8011A
:101EB000199570C0E091F602F091F7020084F18567
:101EC000E02D6CE870E080E590E01995E091F0027B
:101ED000F091F1020190F081E02DBE01695F7F4F2A
:101EE000CE01089619958885E091F602F091F702E7
:101EF0000684F785E02D90E019954CC0E091F6023C
:101F0000F091F7020084F185E02D6CE870E080E547
:101F100090E01995E091F602F091F702008911899D
:101F2000E091F202F091F3020680F781E02D19951D
:101F3000F80119952FC0E091F602F091F7020084A4
:101F4000F185E02D68E770E080E590E01995E0917B
:101F5000F602F091F7020684F785E02DC12CD12C12
:101F60007601C6011995E091F602F091F70204841A
:101F7000F585E02D85E592E01995E091F602F09166
:101F8000F7020684F785E02DC701199503C082E0AA
:101F9000809303028091F9028D3350F01092F90280
:101FA000E091F202F091F3020480F581E02D1995A1
:101FB00028960FB6F894DEBF0FBECDBFDF91CF914C
:101FC000FF91EF91BF91AF919F918F917F916F9111
:101FD0005F914F913F912F911F910F91FF90EF9043
:101FE000DF90CF900F900BBE0F900FBE0F901F9001
:101FF00018955058BB27AA270ED048C139D130F0C8
:102000003ED120F031F49F3F11F41EF42EC10EF4A6
:10201000E095E7FB24C1E92F4AD180F3BA176207A4
:1020200073078407950718F071F49EF562C10EF4EA
:10203000E0950B2EBA2FA02D0B01B90190010C01D8
:10204000CA01A0011124FF27591B99F0593F50F4F0
:10205000503E68F11A16F040A22F232F342F442748
:10206000585FF3CF469537952795A795F040539540
:10207000C9F77EF41F16BA0B620B730B840BBAF010
:102080009150A1F0FF0FBB1F661F771F881FC2F77B
:102090000EC0BA0F621F731F841F48F4879577958F
:1020A0006795B795F7959E3F08F0B3CF9395880F46
:1020B00008F09927EE0F9795879508950CD0E6C004
:1020C000DED040F0D5D030F021F45F3F19F0C7C02A
:1020D000511110C1CAC0EBD098F39923C9F355230D
:1020E000B1F3951B550BBB27AA276217730784070B
:1020F00038F09F5F5F4F220F331F441FAA1FA9F3C1
:1021000033D00E2E3AF0E0E830D091505040E695B2
:10211000001CCAF729D0FE2F27D0660F771F881F13
:10212000BB1F261737074807AB07B0E809F0BB0B02
:10213000802DBF01FF2793585F4F2AF09E3F510526
:1021400068F08DC0D7C05F3FECF3983EDCF3869516
:1021500077956795B795F7959F5FC9F7880F911D9C
:102160009695879597F90895E1E0660F771F881F88
:10217000BB1F621773078407BA0720F0621B730B3B
:10218000840BBA0BEE1F88F7E095089598D088F07D
:102190009F5790F0B92F9927B751A0F0D1F0660F53
:1021A000771F881F991F1AF0BA95C9F712C0B1306E
:1021B00081F09FD0B1E008959CC0672F782F8827C9
:1021C000B85F39F0B93FCCF3869577956795B395AD
:1021D000D9F73EF490958095709561957F4F8F4F1C
:1021E0009F4F0895E89409C097FB3EF49095809521
:1021F000709561957F4F8F4F9F4F9923A9F0F92FCD
:1022000096E9BB279395F695879577956795B7954A
:10221000F111F8CFFAF4BB0F11F460FF1BC06F5F30
:102220007F4F8F4F9F4F16C0882311F096E911C042
:10223000772321F09EE8872F762F05C0662371F063
:1022400096E8862F70E060E02AF09A95660F771F77
:10225000881FDAF7880F9695879597F9089597F96B
:102260009F6780E870E060E008959FEF80EC08953C
:1022700000240A9416161706180609060895002465
:102280000A9412161306140605060895092E0394DF
:10229000000C11F4882352F0BB0F40F4BF2B11F453
:1022A00060FF04C06F5F7F4F8F4F9F4F089557FDB2
:1022B0009058440F551F59F05F3F71F04795880FB4
:1022C00097FB991F61F09F3F79F08795089512164B
:1022D00013061406551FF2CF4695F1DF08C01616F7
:1022E00017061806991FF1CF8695710561050894A8
:1022F0000895E894BB2766277727CB0197F90895BF
:1023000066D008F48FEF08950BD0C0CFB1DF28F06E
:10231000B6DF18F0952309F0A2CFA7CF1124EACF9A
:10232000C6DFA0F3959FD1F3950F50E0551F629F34
:10233000F001729FBB27F00DB11D639FAA27F00D1E
:10234000B11DAA1F649F6627B00DA11D661F829F45
:102350002227B00DA11D621F739FB00DA11D621F2A
:10236000839FA00D611D221F749F3327A00D611D47
:10237000231F849F600D211D822F762F6A2F112429
:102380009F5750408AF0E1F088234AF0EE0FFF1F7C
:10239000BB1F661F771F881F91505040A9F79E3FB3
:1023A000510570F05CCFA6CF5F3FECF3983EDCF3B5
:1023B000869577956795B795F795E7959F5FC1F7F0
:1023C000FE2B880F911D9695879597F90895990F83
:1023D0000008550FAA0BE0E8FEEF16161706E807EF
:1023E000F907C0F012161306E407F50798F0621B10
:1023F000730B840B950B39F40A2661F0232B242BE5
:10240000252B21F408950A2609F4A140A6958FEF03
:10241000811D811D089597FB072E16F4009406D0A8
:1024200077FD08D01AD007FC05D03EF49095819531
:102430009F4F0895709561957F4F0895A29FB001B9
:10244000B39FC001A39F700D811D1124911DB29FE8
:10245000700D811D1124911D0895AA1BBB1B51E114
:1024600007C0AA1FBB1FA617B70710F0A61BB70B04
:10247000881F991F5A95A9F780959095BC01CD01A9
:102480000895BB274A3031F4992322F4BDE2909598
:1024900081959F4F01C0BB27FB015527AA27880FB5
:1024A000991FAA1FA41710F0A41B83955051B9F7C8
:1024B000A05DAA3308F0A95DA193009779F7B11147
:1024C000B1931192CB0100C0DC01FC01672F719127
:1024D0007723E1F7329704C07C916D93708362910A
:1024E000AE17BF07C8F30895A6E1B0E044E050E09E
:1024F0000AC00396272F16D014D0252F13D0242FCF
:1025000011C0DC01CB01FC01F999FECF06C0F2BD80
:10251000E1BDF89A319600B40D9241505040B8F7A1
:102520000895262FF999FECF92BD81BDF89A0197A3
:1025300000B4021639F01FBA20BD0FB6F894FA9A0B
:0A254000F99A0FBE0895F894FFCF3A
:10254A00FFFF030254696D65006B6D2F74005465BB
:10255A006D702E004B6D20636F756E7400204D49AF
:10256A004C4553544F4E4520200020202054454DC1
:10257A005020202020200020202056454C4F20208B
:10258A00202020002053544545504E4553532020C7
:08259A00003A002D002C0000A6
:00000001FF
